{
  "_format": "hh-sol-artifact-1",
  "contractName": "AppleRouter",
  "sourceName": "contracts/ropsten/AppleRouter.sol",
  "abi": [
    {
      "inputs": [
        {
          "internalType": "uint256",
          "name": "feePerTransaction",
          "type": "uint256"
        }
      ],
      "stateMutability": "nonpayable",
      "type": "constructor"
    },
    {
      "anonymous": false,
      "inputs": [
        {
          "indexed": false,
          "internalType": "address",
          "name": "sender",
          "type": "address"
        },
        {
          "indexed": false,
          "internalType": "uint256",
          "name": "amount",
          "type": "uint256"
        },
        {
          "indexed": false,
          "internalType": "address",
          "name": "receivingWallet",
          "type": "address"
        }
      ],
      "name": "APTTokenLocked",
      "type": "event"
    },
    {
      "anonymous": false,
      "inputs": [
        {
          "indexed": false,
          "internalType": "address",
          "name": "sender",
          "type": "address"
        },
        {
          "indexed": false,
          "internalType": "uint256",
          "name": "amount",
          "type": "uint256"
        }
      ],
      "name": "APTTokenReleased",
      "type": "event"
    },
    {
      "anonymous": false,
      "inputs": [
        {
          "indexed": true,
          "internalType": "address",
          "name": "previousOwner",
          "type": "address"
        },
        {
          "indexed": true,
          "internalType": "address",
          "name": "newOwner",
          "type": "address"
        }
      ],
      "name": "OwnershipTransferred",
      "type": "event"
    },
    {
      "inputs": [],
      "name": "APTToken",
      "outputs": [
        {
          "internalType": "contract APT",
          "name": "",
          "type": "address"
        }
      ],
      "stateMutability": "view",
      "type": "function"
    },
    {
      "inputs": [
        {
          "internalType": "address",
          "name": "receivingWallet",
          "type": "address"
        },
        {
          "internalType": "uint256",
          "name": "amount",
          "type": "uint256"
        }
      ],
      "name": "lockAmount",
      "outputs": [],
      "stateMutability": "nonpayable",
      "type": "function"
    },
    {
      "inputs": [],
      "name": "owner",
      "outputs": [
        {
          "internalType": "address",
          "name": "",
          "type": "address"
        }
      ],
      "stateMutability": "view",
      "type": "function"
    },
    {
      "inputs": [
        {
          "internalType": "uint256",
          "name": "amount",
          "type": "uint256"
        },
        {
          "internalType": "address",
          "name": "receivingWallet",
          "type": "address"
        }
      ],
      "name": "releaseAmount",
      "outputs": [],
      "stateMutability": "nonpayable",
      "type": "function"
    },
    {
      "inputs": [],
      "name": "renounceOwnership",
      "outputs": [],
      "stateMutability": "nonpayable",
      "type": "function"
    },
    {
      "inputs": [
        {
          "internalType": "address",
          "name": "APTTokenAddress",
          "type": "address"
        }
      ],
      "name": "setAPTTokenInstance",
      "outputs": [],
      "stateMutability": "nonpayable",
      "type": "function"
    },
    {
      "inputs": [],
      "name": "transactionFee",
      "outputs": [
        {
          "internalType": "uint256",
          "name": "",
          "type": "uint256"
        }
      ],
      "stateMutability": "view",
      "type": "function"
    },
    {
      "inputs": [
        {
          "internalType": "address",
          "name": "newOwner",
          "type": "address"
        }
      ],
      "name": "transferOwnership",
      "outputs": [],
      "stateMutability": "nonpayable",
      "type": "function"
    }
  ],
  "bytecode": "0x608060405234801561001057600080fd5b50604051610fe9380380610fe98339818101604052810190610032919061013c565b61004e61004361005b60201b60201c565b61006360201b60201c565b8060028190555050610186565b600033905090565b60008060009054906101000a900473ffffffffffffffffffffffffffffffffffffffff169050816000806101000a81548173ffffffffffffffffffffffffffffffffffffffff021916908373ffffffffffffffffffffffffffffffffffffffff1602179055508173ffffffffffffffffffffffffffffffffffffffff168173ffffffffffffffffffffffffffffffffffffffff167f8be0079c531659141344cd1fd0a4f28419497f9722a3daafe3b4186f6b6457e060405160405180910390a35050565b6000815190506101368161016f565b92915050565b60006020828403121561014e57600080fd5b600061015c84828501610127565b91505092915050565b6000819050919050565b61017881610165565b811461018357600080fd5b50565b610e54806101956000396000f3fe608060405234801561001057600080fd5b50600436106100885760003560e01c80639ed3edf01161005b5780639ed3edf0146100ef578063a21207261461010d578063ea630ab814610129578063f2fde38b1461014557610088565b8063337187431461008d57806359b1924d146100ab578063715018a6146100c75780638da5cb5b146100d1575b600080fd5b610095610161565b6040516100a29190610b2d565b60405180910390f35b6100c560048036038101906100c091906108f8565b610187565b005b6100cf6102c8565b005b6100d9610350565b6040516100e69190610a7b565b60405180910390f35b6100f7610379565b6040516101049190610bc8565b60405180910390f35b61012760048036038101906101229190610986565b61037f565b005b610143600480360381019061013e91906108cf565b6105f7565b005b61015f600480360381019061015a91906108cf565b6106b7565b005b600160009054906101000a900473ffffffffffffffffffffffffffffffffffffffff1681565b600081116101ca576040517f08c379a00000000000000000000000000000000000000000000000000000000081526004016101c190610b68565b60405180910390fd5b600160009054906101000a900473ffffffffffffffffffffffffffffffffffffffff1673ffffffffffffffffffffffffffffffffffffffff166323b872dd3330846040518463ffffffff1660e01b815260040161022993929190610a96565b602060405180830381600087803b15801561024357600080fd5b505af1158015610257573d6000803e3d6000fd5b505050506040513d601f19601f8201168201806040525081019061027b9190610934565b507f604719e250309b7b2cfff6f5c0c0ae813c73f48c505b7fae95d6b44b9d6c21cd33600254836102ac9190610bf4565b846040516102bc93929190610af6565b60405180910390a15050565b6102d06107af565b73ffffffffffffffffffffffffffffffffffffffff166102ee610350565b73ffffffffffffffffffffffffffffffffffffffff1614610344576040517f08c379a000000000000000000000000000000000000000000000000000000000815260040161033b90610ba8565b60405180910390fd5b61034e60006107b7565b565b60008060009054906101000a900473ffffffffffffffffffffffffffffffffffffffff16905090565b60025481565b600082116103c2576040517f08c379a00000000000000000000000000000000000000000000000000000000081526004016103b990610b88565b60405180910390fd5b81600160009054906101000a900473ffffffffffffffffffffffffffffffffffffffff1673ffffffffffffffffffffffffffffffffffffffff166370a08231306040518263ffffffff1660e01b815260040161041e9190610a7b565b60206040518083038186803b15801561043657600080fd5b505afa15801561044a573d6000803e3d6000fd5b505050506040513d601f19601f8201168201806040525081019061046e919061095d565b1161050757600160009054906101000a900473ffffffffffffffffffffffffffffffffffffffff1673ffffffffffffffffffffffffffffffffffffffff166340c10f1982846040518363ffffffff1660e01b81526004016104d0929190610acd565b600060405180830381600087803b1580156104ea57600080fd5b505af11580156104fe573d6000803e3d6000fd5b505050506105ba565b600160009054906101000a900473ffffffffffffffffffffffffffffffffffffffff1673ffffffffffffffffffffffffffffffffffffffff166323b872dd3083856040518463ffffffff1660e01b815260040161056693929190610a96565b602060405180830381600087803b15801561058057600080fd5b505af1158015610594573d6000803e3d6000fd5b505050506040513d601f19601f820116820180604052508101906105b89190610934565b505b7f3bcdf10e3f63a12e07bf1f887c53a248675c41bf6a22a09dca40ab3980aed38981836040516105eb929190610acd565b60405180910390a15050565b6105ff6107af565b73ffffffffffffffffffffffffffffffffffffffff1661061d610350565b73ffffffffffffffffffffffffffffffffffffffff1614610673576040517f08c379a000000000000000000000000000000000000000000000000000000000815260040161066a90610ba8565b60405180910390fd5b80600160006101000a81548173ffffffffffffffffffffffffffffffffffffffff021916908373ffffffffffffffffffffffffffffffffffffffff16021790555050565b6106bf6107af565b73ffffffffffffffffffffffffffffffffffffffff166106dd610350565b73ffffffffffffffffffffffffffffffffffffffff1614610733576040517f08c379a000000000000000000000000000000000000000000000000000000000815260040161072a90610ba8565b60405180910390fd5b600073ffffffffffffffffffffffffffffffffffffffff168173ffffffffffffffffffffffffffffffffffffffff1614156107a3576040517f08c379a000000000000000000000000000000000000000000000000000000000815260040161079a90610b48565b60405180910390fd5b6107ac816107b7565b50565b600033905090565b60008060009054906101000a900473ffffffffffffffffffffffffffffffffffffffff169050816000806101000a81548173ffffffffffffffffffffffffffffffffffffffff021916908373ffffffffffffffffffffffffffffffffffffffff1602179055508173ffffffffffffffffffffffffffffffffffffffff168173ffffffffffffffffffffffffffffffffffffffff167f8be0079c531659141344cd1fd0a4f28419497f9722a3daafe3b4186f6b6457e060405160405180910390a35050565b60008135905061088a81610dd9565b92915050565b60008151905061089f81610df0565b92915050565b6000813590506108b481610e07565b92915050565b6000815190506108c981610e07565b92915050565b6000602082840312156108e157600080fd5b60006108ef8482850161087b565b91505092915050565b6000806040838503121561090b57600080fd5b60006109198582860161087b565b925050602061092a858286016108a5565b9150509250929050565b60006020828403121561094657600080fd5b600061095484828501610890565b91505092915050565b60006020828403121561096f57600080fd5b600061097d848285016108ba565b91505092915050565b6000806040838503121561099957600080fd5b60006109a7858286016108a5565b92505060206109b88582860161087b565b9150509250929050565b6109cb81610c28565b82525050565b6109da81610c70565b82525050565b60006109ed602683610be3565b91506109f882610cc3565b604082019050919050565b6000610a10602183610be3565b9150610a1b82610d12565b604082019050919050565b6000610a33602383610be3565b9150610a3e82610d61565b604082019050919050565b6000610a56602083610be3565b9150610a6182610db0565b602082019050919050565b610a7581610c66565b82525050565b6000602082019050610a9060008301846109c2565b92915050565b6000606082019050610aab60008301866109c2565b610ab860208301856109c2565b610ac56040830184610a6c565b949350505050565b6000604082019050610ae260008301856109c2565b610aef6020830184610a6c565b9392505050565b6000606082019050610b0b60008301866109c2565b610b186020830185610a6c565b610b2560408301846109c2565b949350505050565b6000602082019050610b4260008301846109d1565b92915050565b60006020820190508181036000830152610b61816109e0565b9050919050565b60006020820190508181036000830152610b8181610a03565b9050919050565b60006020820190508181036000830152610ba181610a26565b9050919050565b60006020820190508181036000830152610bc181610a49565b9050919050565b6000602082019050610bdd6000830184610a6c565b92915050565b600082825260208201905092915050565b6000610bff82610c66565b9150610c0a83610c66565b925082821015610c1d57610c1c610c94565b5b828203905092915050565b6000610c3382610c46565b9050919050565b60008115159050919050565b600073ffffffffffffffffffffffffffffffffffffffff82169050919050565b6000819050919050565b6000610c7b82610c82565b9050919050565b6000610c8d82610c46565b9050919050565b7f4e487b7100000000000000000000000000000000000000000000000000000000600052601160045260246000fd5b7f4f776e61626c653a206e6577206f776e657220697320746865207a65726f206160008201527f6464726573730000000000000000000000000000000000000000000000000000602082015250565b7f4174206c65617374203120415054206e6565647320746f206265206c6f636b6560008201527f6400000000000000000000000000000000000000000000000000000000000000602082015250565b7f4174206c65617374203120415054206e6565647320746f2062652072656c656160008201527f7365640000000000000000000000000000000000000000000000000000000000602082015250565b7f4f776e61626c653a2063616c6c6572206973206e6f7420746865206f776e6572600082015250565b610de281610c28565b8114610ded57600080fd5b50565b610df981610c3a565b8114610e0457600080fd5b50565b610e1081610c66565b8114610e1b57600080fd5b5056fea2646970667358221220f88105856f9deae1d6502877496afeaa40fcaeb0a7f47f7a33fc45b5e443776f64736f6c63430008040033",
  "linkReferences": {},
  "deployedLinkReferences": {}
}