{
  "_format": "hh-sol-artifact-1",
  "contractName": "AppleRouter",
  "sourceName": "contracts/ropsten/AppleRouter.sol",
  "abi": [
    {
      "inputs": [
        {
          "internalType": "address",
          "name": "APTTockenAddress",
          "type": "address"
        }
      ],
      "stateMutability": "nonpayable",
      "type": "constructor"
    },
    {
      "anonymous": false,
      "inputs": [
        {
          "indexed": false,
          "internalType": "address",
          "name": "sender",
          "type": "address"
        },
        {
          "indexed": false,
          "internalType": "uint256",
          "name": "amount",
          "type": "uint256"
        },
        {
          "indexed": false,
          "internalType": "address",
          "name": "receivingWallet",
          "type": "address"
        }
      ],
      "name": "APTTokenLocked",
      "type": "event"
    },
    {
      "anonymous": false,
      "inputs": [
        {
          "indexed": false,
          "internalType": "address",
          "name": "sender",
          "type": "address"
        },
        {
          "indexed": false,
          "internalType": "uint256",
          "name": "amount",
          "type": "uint256"
        }
      ],
      "name": "APTTokenReleased",
      "type": "event"
    },
    {
      "anonymous": false,
      "inputs": [
        {
          "indexed": true,
          "internalType": "address",
          "name": "previousOwner",
          "type": "address"
        },
        {
          "indexed": true,
          "internalType": "address",
          "name": "newOwner",
          "type": "address"
        }
      ],
      "name": "OwnershipTransferred",
      "type": "event"
    },
    {
      "inputs": [],
      "name": "APTToken",
      "outputs": [
        {
          "internalType": "contract APT",
          "name": "",
          "type": "address"
        }
      ],
      "stateMutability": "view",
      "type": "function"
    },
    {
      "inputs": [],
      "name": "MINTER_ROLE",
      "outputs": [
        {
          "internalType": "bytes32",
          "name": "",
          "type": "bytes32"
        }
      ],
      "stateMutability": "view",
      "type": "function"
    },
    {
      "inputs": [
        {
          "internalType": "address",
          "name": "receivingWallet",
          "type": "address"
        },
        {
          "internalType": "uint256",
          "name": "amount",
          "type": "uint256"
        }
      ],
      "name": "lockAmount",
      "outputs": [],
      "stateMutability": "nonpayable",
      "type": "function"
    },
    {
      "inputs": [],
      "name": "owner",
      "outputs": [
        {
          "internalType": "address",
          "name": "",
          "type": "address"
        }
      ],
      "stateMutability": "view",
      "type": "function"
    },
    {
      "inputs": [
        {
          "internalType": "uint256",
          "name": "amount",
          "type": "uint256"
        }
      ],
      "name": "releaseAmount",
      "outputs": [],
      "stateMutability": "nonpayable",
      "type": "function"
    },
    {
      "inputs": [],
      "name": "renounceOwnership",
      "outputs": [],
      "stateMutability": "nonpayable",
      "type": "function"
    },
    {
      "inputs": [
        {
          "internalType": "address",
          "name": "newOwner",
          "type": "address"
        }
      ],
      "name": "transferOwnership",
      "outputs": [],
      "stateMutability": "nonpayable",
      "type": "function"
    }
  ],
  "bytecode": "0x60806040523480156200001157600080fd5b50604051620010a8380380620010a8833981810160405281019062000037919062000235565b620000576200004b6200015260201b60201c565b6200015a60201b60201c565b80600160006101000a81548173ffffffffffffffffffffffffffffffffffffffff021916908373ffffffffffffffffffffffffffffffffffffffff160217905550600160009054906101000a900473ffffffffffffffffffffffffffffffffffffffff1673ffffffffffffffffffffffffffffffffffffffff1663fa82ac767f9f2df0fed2c77648de5860a4cc508cd0818c85b8b8a1ab4ceeef8d981c8956a6306040518363ffffffff1660e01b81526004016200011792919062000283565b600060405180830381600087803b1580156200013257600080fd5b505af115801562000147573d6000803e3d6000fd5b505050505062000308565b600033905090565b60008060009054906101000a900473ffffffffffffffffffffffffffffffffffffffff169050816000806101000a81548173ffffffffffffffffffffffffffffffffffffffff021916908373ffffffffffffffffffffffffffffffffffffffff1602179055508173ffffffffffffffffffffffffffffffffffffffff168173ffffffffffffffffffffffffffffffffffffffff167f8be0079c531659141344cd1fd0a4f28419497f9722a3daafe3b4186f6b6457e060405160405180910390a35050565b6000815190506200022f81620002ee565b92915050565b6000602082840312156200024857600080fd5b600062000258848285016200021e565b91505092915050565b6200026c81620002b0565b82525050565b6200027d81620002c4565b82525050565b60006040820190506200029a600083018562000272565b620002a9602083018462000261565b9392505050565b6000620002bd82620002ce565b9050919050565b6000819050919050565b600073ffffffffffffffffffffffffffffffffffffffff82169050919050565b620002f981620002b0565b81146200030557600080fd5b50565b610d9080620003186000396000f3fe608060405234801561001057600080fd5b506004361061007d5760003560e01c8063715018a61161005b578063715018a6146100d85780638da5cb5b146100e2578063d539139314610100578063f2fde38b1461011e5761007d565b80632278f36b14610082578063337187431461009e57806359b1924d146100bc575b600080fd5b61009c60048036038101906100979190610893565b61013a565b005b6100a66103b1565b6040516100b39190610a7a565b60405180910390f35b6100d660048036038101906100d1919061082e565b6103d7565b005b6100e0610518565b005b6100ea6105a0565b6040516100f791906109ad565b60405180910390f35b6101086105c9565b6040516101159190610a5f565b60405180910390f35b61013860048036038101906101339190610805565b6105ed565b005b6000811161017d576040517f08c379a000000000000000000000000000000000000000000000000000000000815260040161017490610ad5565b60405180910390fd5b80600160009054906101000a900473ffffffffffffffffffffffffffffffffffffffff1673ffffffffffffffffffffffffffffffffffffffff166370a08231306040518263ffffffff1660e01b81526004016101d991906109ad565b60206040518083038186803b1580156101f157600080fd5b505afa158015610205573d6000803e3d6000fd5b505050506040513d601f19601f8201168201806040525081019061022991906108bc565b116102c257600160009054906101000a900473ffffffffffffffffffffffffffffffffffffffff1673ffffffffffffffffffffffffffffffffffffffff166340c10f1933836040518363ffffffff1660e01b815260040161028b9291906109ff565b600060405180830381600087803b1580156102a557600080fd5b505af11580156102b9573d6000803e3d6000fd5b50505050610375565b600160009054906101000a900473ffffffffffffffffffffffffffffffffffffffff1673ffffffffffffffffffffffffffffffffffffffff166323b872dd3033846040518463ffffffff1660e01b8152600401610321939291906109c8565b602060405180830381600087803b15801561033b57600080fd5b505af115801561034f573d6000803e3d6000fd5b505050506040513d601f19601f82011682018060405250810190610373919061086a565b505b7f3bcdf10e3f63a12e07bf1f887c53a248675c41bf6a22a09dca40ab3980aed38933826040516103a69291906109ff565b60405180910390a150565b600160009054906101000a900473ffffffffffffffffffffffffffffffffffffffff1681565b6000811161041a576040517f08c379a000000000000000000000000000000000000000000000000000000000815260040161041190610ab5565b60405180910390fd5b600160009054906101000a900473ffffffffffffffffffffffffffffffffffffffff1673ffffffffffffffffffffffffffffffffffffffff166323b872dd3330846040518463ffffffff1660e01b8152600401610479939291906109c8565b602060405180830381600087803b15801561049357600080fd5b505af11580156104a7573d6000803e3d6000fd5b505050506040513d601f19601f820116820180604052508101906104cb919061086a565b507f604719e250309b7b2cfff6f5c0c0ae813c73f48c505b7fae95d6b44b9d6c21cd336103e8836104fc9190610b26565b8460405161050c93929190610a28565b60405180910390a15050565b6105206106e5565b73ffffffffffffffffffffffffffffffffffffffff1661053e6105a0565b73ffffffffffffffffffffffffffffffffffffffff1614610594576040517f08c379a000000000000000000000000000000000000000000000000000000000815260040161058b90610af5565b60405180910390fd5b61059e60006106ed565b565b60008060009054906101000a900473ffffffffffffffffffffffffffffffffffffffff16905090565b7f9f2df0fed2c77648de5860a4cc508cd0818c85b8b8a1ab4ceeef8d981c8956a681565b6105f56106e5565b73ffffffffffffffffffffffffffffffffffffffff166106136105a0565b73ffffffffffffffffffffffffffffffffffffffff1614610669576040517f08c379a000000000000000000000000000000000000000000000000000000000815260040161066090610af5565b60405180910390fd5b600073ffffffffffffffffffffffffffffffffffffffff168173ffffffffffffffffffffffffffffffffffffffff1614156106d9576040517f08c379a00000000000000000000000000000000000000000000000000000000081526004016106d090610a95565b60405180910390fd5b6106e2816106ed565b50565b600033905090565b60008060009054906101000a900473ffffffffffffffffffffffffffffffffffffffff169050816000806101000a81548173ffffffffffffffffffffffffffffffffffffffff021916908373ffffffffffffffffffffffffffffffffffffffff1602179055508173ffffffffffffffffffffffffffffffffffffffff168173ffffffffffffffffffffffffffffffffffffffff167f8be0079c531659141344cd1fd0a4f28419497f9722a3daafe3b4186f6b6457e060405160405180910390a35050565b6000813590506107c081610d15565b92915050565b6000815190506107d581610d2c565b92915050565b6000813590506107ea81610d43565b92915050565b6000815190506107ff81610d43565b92915050565b60006020828403121561081757600080fd5b6000610825848285016107b1565b91505092915050565b6000806040838503121561084157600080fd5b600061084f858286016107b1565b9250506020610860858286016107db565b9150509250929050565b60006020828403121561087c57600080fd5b600061088a848285016107c6565b91505092915050565b6000602082840312156108a557600080fd5b60006108b3848285016107db565b91505092915050565b6000602082840312156108ce57600080fd5b60006108dc848285016107f0565b91505092915050565b6108ee81610b5a565b82525050565b6108fd81610b78565b82525050565b61090c81610bac565b82525050565b600061091f602683610b15565b915061092a82610bff565b604082019050919050565b6000610942602183610b15565b915061094d82610c4e565b604082019050919050565b6000610965602383610b15565b915061097082610c9d565b604082019050919050565b6000610988602083610b15565b915061099382610cec565b602082019050919050565b6109a781610ba2565b82525050565b60006020820190506109c260008301846108e5565b92915050565b60006060820190506109dd60008301866108e5565b6109ea60208301856108e5565b6109f7604083018461099e565b949350505050565b6000604082019050610a1460008301856108e5565b610a21602083018461099e565b9392505050565b6000606082019050610a3d60008301866108e5565b610a4a602083018561099e565b610a5760408301846108e5565b949350505050565b6000602082019050610a7460008301846108f4565b92915050565b6000602082019050610a8f6000830184610903565b92915050565b60006020820190508181036000830152610aae81610912565b9050919050565b60006020820190508181036000830152610ace81610935565b9050919050565b60006020820190508181036000830152610aee81610958565b9050919050565b60006020820190508181036000830152610b0e8161097b565b9050919050565b600082825260208201905092915050565b6000610b3182610ba2565b9150610b3c83610ba2565b925082821015610b4f57610b4e610bd0565b5b828203905092915050565b6000610b6582610b82565b9050919050565b60008115159050919050565b6000819050919050565b600073ffffffffffffffffffffffffffffffffffffffff82169050919050565b6000819050919050565b6000610bb782610bbe565b9050919050565b6000610bc982610b82565b9050919050565b7f4e487b7100000000000000000000000000000000000000000000000000000000600052601160045260246000fd5b7f4f776e61626c653a206e6577206f776e657220697320746865207a65726f206160008201527f6464726573730000000000000000000000000000000000000000000000000000602082015250565b7f4174206c65617374203120415054206e6565647320746f206265206c6f636b6560008201527f6400000000000000000000000000000000000000000000000000000000000000602082015250565b7f4174206c65617374203120415054206e6565647320746f2062652072656c656160008201527f7365640000000000000000000000000000000000000000000000000000000000602082015250565b7f4f776e61626c653a2063616c6c6572206973206e6f7420746865206f776e6572600082015250565b610d1e81610b5a565b8114610d2957600080fd5b50565b610d3581610b6c565b8114610d4057600080fd5b50565b610d4c81610ba2565b8114610d5757600080fd5b5056fea264697066735822122021fed68dfc3892507b88dd0a53aca8cf428e34dcf1023292b0fec3cd342942fa64736f6c63430008040033",
  "linkReferences": {},
  "deployedLinkReferences": {}
}