{
  "_format": "hh-sol-artifact-1",
  "contractName": "LMT",
  "sourceName": "contracts/rinkeby/LimeToken.sol",
  "abi": [
    {
      "inputs": [
        {
          "internalType": "address",
          "name": "routerContractAddress",
          "type": "address"
        }
      ],
      "stateMutability": "nonpayable",
      "type": "constructor"
    },
    {
      "anonymous": false,
      "inputs": [
        {
          "indexed": true,
          "internalType": "address",
          "name": "owner",
          "type": "address"
        },
        {
          "indexed": true,
          "internalType": "address",
          "name": "spender",
          "type": "address"
        },
        {
          "indexed": false,
          "internalType": "uint256",
          "name": "value",
          "type": "uint256"
        }
      ],
      "name": "Approval",
      "type": "event"
    },
    {
      "anonymous": false,
      "inputs": [
        {
          "indexed": true,
          "internalType": "address",
          "name": "previousOwner",
          "type": "address"
        },
        {
          "indexed": true,
          "internalType": "address",
          "name": "newOwner",
          "type": "address"
        }
      ],
      "name": "OwnershipTransferred",
      "type": "event"
    },
    {
      "anonymous": false,
      "inputs": [
        {
          "indexed": false,
          "internalType": "address",
          "name": "account",
          "type": "address"
        }
      ],
      "name": "Paused",
      "type": "event"
    },
    {
      "anonymous": false,
      "inputs": [
        {
          "indexed": true,
          "internalType": "bytes32",
          "name": "role",
          "type": "bytes32"
        },
        {
          "indexed": true,
          "internalType": "bytes32",
          "name": "previousAdminRole",
          "type": "bytes32"
        },
        {
          "indexed": true,
          "internalType": "bytes32",
          "name": "newAdminRole",
          "type": "bytes32"
        }
      ],
      "name": "RoleAdminChanged",
      "type": "event"
    },
    {
      "anonymous": false,
      "inputs": [
        {
          "indexed": true,
          "internalType": "bytes32",
          "name": "role",
          "type": "bytes32"
        },
        {
          "indexed": true,
          "internalType": "address",
          "name": "account",
          "type": "address"
        },
        {
          "indexed": true,
          "internalType": "address",
          "name": "sender",
          "type": "address"
        }
      ],
      "name": "RoleGranted",
      "type": "event"
    },
    {
      "anonymous": false,
      "inputs": [
        {
          "indexed": true,
          "internalType": "bytes32",
          "name": "role",
          "type": "bytes32"
        },
        {
          "indexed": true,
          "internalType": "address",
          "name": "account",
          "type": "address"
        },
        {
          "indexed": true,
          "internalType": "address",
          "name": "sender",
          "type": "address"
        }
      ],
      "name": "RoleRevoked",
      "type": "event"
    },
    {
      "anonymous": false,
      "inputs": [
        {
          "indexed": true,
          "internalType": "address",
          "name": "from",
          "type": "address"
        },
        {
          "indexed": true,
          "internalType": "address",
          "name": "to",
          "type": "address"
        },
        {
          "indexed": false,
          "internalType": "uint256",
          "name": "value",
          "type": "uint256"
        }
      ],
      "name": "Transfer",
      "type": "event"
    },
    {
      "anonymous": false,
      "inputs": [
        {
          "indexed": false,
          "internalType": "address",
          "name": "account",
          "type": "address"
        }
      ],
      "name": "Unpaused",
      "type": "event"
    },
    {
      "inputs": [],
      "name": "DEFAULT_ADMIN_ROLE",
      "outputs": [
        {
          "internalType": "bytes32",
          "name": "",
          "type": "bytes32"
        }
      ],
      "stateMutability": "view",
      "type": "function"
    },
    {
      "inputs": [],
      "name": "MINTER_ROLE",
      "outputs": [
        {
          "internalType": "bytes32",
          "name": "",
          "type": "bytes32"
        }
      ],
      "stateMutability": "view",
      "type": "function"
    },
    {
      "inputs": [],
      "name": "PAUSER_ROLE",
      "outputs": [
        {
          "internalType": "bytes32",
          "name": "",
          "type": "bytes32"
        }
      ],
      "stateMutability": "view",
      "type": "function"
    },
    {
      "inputs": [
        {
          "internalType": "address",
          "name": "owner",
          "type": "address"
        },
        {
          "internalType": "address",
          "name": "spender",
          "type": "address"
        }
      ],
      "name": "allowance",
      "outputs": [
        {
          "internalType": "uint256",
          "name": "",
          "type": "uint256"
        }
      ],
      "stateMutability": "view",
      "type": "function"
    },
    {
      "inputs": [
        {
          "internalType": "address",
          "name": "spender",
          "type": "address"
        },
        {
          "internalType": "uint256",
          "name": "amount",
          "type": "uint256"
        }
      ],
      "name": "approve",
      "outputs": [
        {
          "internalType": "bool",
          "name": "",
          "type": "bool"
        }
      ],
      "stateMutability": "nonpayable",
      "type": "function"
    },
    {
      "inputs": [
        {
          "internalType": "address",
          "name": "account",
          "type": "address"
        }
      ],
      "name": "balanceOf",
      "outputs": [
        {
          "internalType": "uint256",
          "name": "",
          "type": "uint256"
        }
      ],
      "stateMutability": "view",
      "type": "function"
    },
    {
      "inputs": [
        {
          "internalType": "uint256",
          "name": "amount",
          "type": "uint256"
        }
      ],
      "name": "burn",
      "outputs": [],
      "stateMutability": "nonpayable",
      "type": "function"
    },
    {
      "inputs": [
        {
          "internalType": "address",
          "name": "account",
          "type": "address"
        },
        {
          "internalType": "uint256",
          "name": "amount",
          "type": "uint256"
        }
      ],
      "name": "burnFrom",
      "outputs": [],
      "stateMutability": "nonpayable",
      "type": "function"
    },
    {
      "inputs": [],
      "name": "decimals",
      "outputs": [
        {
          "internalType": "uint8",
          "name": "",
          "type": "uint8"
        }
      ],
      "stateMutability": "view",
      "type": "function"
    },
    {
      "inputs": [
        {
          "internalType": "address",
          "name": "spender",
          "type": "address"
        },
        {
          "internalType": "uint256",
          "name": "subtractedValue",
          "type": "uint256"
        }
      ],
      "name": "decreaseAllowance",
      "outputs": [
        {
          "internalType": "bool",
          "name": "",
          "type": "bool"
        }
      ],
      "stateMutability": "nonpayable",
      "type": "function"
    },
    {
      "inputs": [
        {
          "internalType": "bytes32",
          "name": "role",
          "type": "bytes32"
        }
      ],
      "name": "getRoleAdmin",
      "outputs": [
        {
          "internalType": "bytes32",
          "name": "",
          "type": "bytes32"
        }
      ],
      "stateMutability": "view",
      "type": "function"
    },
    {
      "inputs": [
        {
          "internalType": "bytes32",
          "name": "role",
          "type": "bytes32"
        },
        {
          "internalType": "uint256",
          "name": "index",
          "type": "uint256"
        }
      ],
      "name": "getRoleMember",
      "outputs": [
        {
          "internalType": "address",
          "name": "",
          "type": "address"
        }
      ],
      "stateMutability": "view",
      "type": "function"
    },
    {
      "inputs": [
        {
          "internalType": "bytes32",
          "name": "role",
          "type": "bytes32"
        }
      ],
      "name": "getRoleMemberCount",
      "outputs": [
        {
          "internalType": "uint256",
          "name": "",
          "type": "uint256"
        }
      ],
      "stateMutability": "view",
      "type": "function"
    },
    {
      "inputs": [
        {
          "internalType": "bytes32",
          "name": "role",
          "type": "bytes32"
        },
        {
          "internalType": "address",
          "name": "account",
          "type": "address"
        }
      ],
      "name": "grantRole",
      "outputs": [],
      "stateMutability": "nonpayable",
      "type": "function"
    },
    {
      "inputs": [
        {
          "internalType": "bytes32",
          "name": "role",
          "type": "bytes32"
        },
        {
          "internalType": "address",
          "name": "account",
          "type": "address"
        }
      ],
      "name": "hasRole",
      "outputs": [
        {
          "internalType": "bool",
          "name": "",
          "type": "bool"
        }
      ],
      "stateMutability": "view",
      "type": "function"
    },
    {
      "inputs": [
        {
          "internalType": "address",
          "name": "spender",
          "type": "address"
        },
        {
          "internalType": "uint256",
          "name": "addedValue",
          "type": "uint256"
        }
      ],
      "name": "increaseAllowance",
      "outputs": [
        {
          "internalType": "bool",
          "name": "",
          "type": "bool"
        }
      ],
      "stateMutability": "nonpayable",
      "type": "function"
    },
    {
      "inputs": [
        {
          "internalType": "address",
          "name": "to",
          "type": "address"
        },
        {
          "internalType": "uint256",
          "name": "amount",
          "type": "uint256"
        }
      ],
      "name": "mint",
      "outputs": [],
      "stateMutability": "nonpayable",
      "type": "function"
    },
    {
      "inputs": [],
      "name": "name",
      "outputs": [
        {
          "internalType": "string",
          "name": "",
          "type": "string"
        }
      ],
      "stateMutability": "view",
      "type": "function"
    },
    {
      "inputs": [],
      "name": "owner",
      "outputs": [
        {
          "internalType": "address",
          "name": "",
          "type": "address"
        }
      ],
      "stateMutability": "view",
      "type": "function"
    },
    {
      "inputs": [],
      "name": "pause",
      "outputs": [],
      "stateMutability": "nonpayable",
      "type": "function"
    },
    {
      "inputs": [],
      "name": "paused",
      "outputs": [
        {
          "internalType": "bool",
          "name": "",
          "type": "bool"
        }
      ],
      "stateMutability": "view",
      "type": "function"
    },
    {
      "inputs": [],
      "name": "renounceOwnership",
      "outputs": [],
      "stateMutability": "nonpayable",
      "type": "function"
    },
    {
      "inputs": [
        {
          "internalType": "bytes32",
          "name": "role",
          "type": "bytes32"
        },
        {
          "internalType": "address",
          "name": "account",
          "type": "address"
        }
      ],
      "name": "renounceRole",
      "outputs": [],
      "stateMutability": "nonpayable",
      "type": "function"
    },
    {
      "inputs": [
        {
          "internalType": "bytes32",
          "name": "role",
          "type": "bytes32"
        },
        {
          "internalType": "address",
          "name": "account",
          "type": "address"
        }
      ],
      "name": "revokeRole",
      "outputs": [],
      "stateMutability": "nonpayable",
      "type": "function"
    },
    {
      "inputs": [
        {
          "internalType": "bytes4",
          "name": "interfaceId",
          "type": "bytes4"
        }
      ],
      "name": "supportsInterface",
      "outputs": [
        {
          "internalType": "bool",
          "name": "",
          "type": "bool"
        }
      ],
      "stateMutability": "view",
      "type": "function"
    },
    {
      "inputs": [],
      "name": "symbol",
      "outputs": [
        {
          "internalType": "string",
          "name": "",
          "type": "string"
        }
      ],
      "stateMutability": "view",
      "type": "function"
    },
    {
      "inputs": [],
      "name": "totalSupply",
      "outputs": [
        {
          "internalType": "uint256",
          "name": "",
          "type": "uint256"
        }
      ],
      "stateMutability": "view",
      "type": "function"
    },
    {
      "inputs": [
        {
          "internalType": "address",
          "name": "to",
          "type": "address"
        },
        {
          "internalType": "uint256",
          "name": "amount",
          "type": "uint256"
        }
      ],
      "name": "transfer",
      "outputs": [
        {
          "internalType": "bool",
          "name": "",
          "type": "bool"
        }
      ],
      "stateMutability": "nonpayable",
      "type": "function"
    },
    {
      "inputs": [
        {
          "internalType": "address",
          "name": "from",
          "type": "address"
        },
        {
          "internalType": "address",
          "name": "to",
          "type": "address"
        },
        {
          "internalType": "uint256",
          "name": "amount",
          "type": "uint256"
        }
      ],
      "name": "transferFrom",
      "outputs": [
        {
          "internalType": "bool",
          "name": "",
          "type": "bool"
        }
      ],
      "stateMutability": "nonpayable",
      "type": "function"
    },
    {
      "inputs": [
        {
          "internalType": "address",
          "name": "newOwner",
          "type": "address"
        }
      ],
      "name": "transferOwnership",
      "outputs": [],
      "stateMutability": "nonpayable",
      "type": "function"
    },
    {
      "inputs": [],
      "name": "unpause",
      "outputs": [],
      "stateMutability": "nonpayable",
      "type": "function"
    }
  ],
  "bytecode": "0x60806040523480156200001157600080fd5b50604051620041a3380380620041a3833981810160405281019062000037919062000871565b6040518060400160405280600981526020017f4c696d65546f6b656e00000000000000000000000000000000000000000000008152506040518060400160405280600381526020017f4c4d54000000000000000000000000000000000000000000000000000000000081525081818160059080519060200190620000bd929190620007aa565b508060069080519060200190620000d6929190620007aa565b5050506000600760006101000a81548160ff021916908315150217905550620001186000801b6200010c6200022660201b60201c565b6200022e60201b60201c565b620001597f9f2df0fed2c77648de5860a4cc508cd0818c85b8b8a1ab4ceeef8d981c8956a66200014d6200022660201b60201c565b6200022e60201b60201c565b6200019a7f65d7a28e3265b37a6474929f336521b332c1681b933f6cb9f3376673440d862a6200018e6200022660201b60201c565b6200022e60201b60201c565b5050620001bc620001b06200022660201b60201c565b6200024460201b60201c565b620001d16000801b336200022e60201b60201c565b620002037f9f2df0fed2c77648de5860a4cc508cd0818c85b8b8a1ab4ceeef8d981c8956a6826200022e60201b60201c565b6200021f33692a5a058fc295ed0000006200030a60201b60201c565b5062000b2f565b600033905090565b6200024082826200048460201b60201c565b5050565b6000600760019054906101000a900473ffffffffffffffffffffffffffffffffffffffff16905081600760016101000a81548173ffffffffffffffffffffffffffffffffffffffff021916908373ffffffffffffffffffffffffffffffffffffffff1602179055508173ffffffffffffffffffffffffffffffffffffffff168173ffffffffffffffffffffffffffffffffffffffff167f8be0079c531659141344cd1fd0a4f28419497f9722a3daafe3b4186f6b6457e060405160405180910390a35050565b600073ffffffffffffffffffffffffffffffffffffffff168273ffffffffffffffffffffffffffffffffffffffff1614156200037d576040517f08c379a00000000000000000000000000000000000000000000000000000000081526004016200037490620008fc565b60405180910390fd5b6200039160008383620004cc60201b60201c565b8060046000828254620003a591906200096e565b9250508190555080600260008473ffffffffffffffffffffffffffffffffffffffff1673ffffffffffffffffffffffffffffffffffffffff1681526020019081526020016000206000828254620003fd91906200096e565b925050819055508173ffffffffffffffffffffffffffffffffffffffff16600073ffffffffffffffffffffffffffffffffffffffff167fddf252ad1be2c89b69c2b068fc378daa952ba7f163c4a11628f55a4df523b3ef8360405162000464919062000940565b60405180910390a36200048060008383620004e960201b60201c565b5050565b6200049b8282620004ee60201b6200100b1760201c565b620004c78160016000858152602001908152602001600020620005df60201b620010eb1790919060201c565b505050565b620004e48383836200061760201b6200111b1760201c565b505050565b505050565b6200050082826200068760201b60201c565b620005db57600160008084815260200190815260200160002060000160008373ffffffffffffffffffffffffffffffffffffffff1673ffffffffffffffffffffffffffffffffffffffff16815260200190815260200160002060006101000a81548160ff021916908315150217905550620005806200022660201b60201c565b73ffffffffffffffffffffffffffffffffffffffff168173ffffffffffffffffffffffffffffffffffffffff16837f2f8788117e7eff1d82e926ec794901d17c78024a50270940304540a733656f0d60405160405180910390a45b5050565b60006200060f836000018373ffffffffffffffffffffffffffffffffffffffff1660001b620006f160201b60201c565b905092915050565b6200062f8383836200076b60201b620011731760201c565b6200063f6200077060201b60201c565b1562000682576040517f08c379a000000000000000000000000000000000000000000000000000000000815260040162000679906200091e565b60405180910390fd5b505050565b600080600084815260200190815260200160002060000160008373ffffffffffffffffffffffffffffffffffffffff1673ffffffffffffffffffffffffffffffffffffffff16815260200190815260200160002060009054906101000a900460ff16905092915050565b60006200070583836200078760201b60201c565b6200076057826000018290806001815401808255809150506001900390600052602060002001600090919091909150558260000180549050836001016000848152602001908152602001600020819055506001905062000765565b600090505b92915050565b505050565b6000600760009054906101000a900460ff16905090565b600080836001016000848152602001908152602001600020541415905092915050565b828054620007b89062000a09565b90600052602060002090601f016020900481019282620007dc576000855562000828565b82601f10620007f757805160ff191683800117855562000828565b8280016001018555821562000828579182015b82811115620008275782518255916020019190600101906200080a565b5b5090506200083791906200083b565b5090565b5b80821115620008565760008160009055506001016200083c565b5090565b6000815190506200086b8162000b15565b92915050565b6000602082840312156200088457600080fd5b600062000894848285016200085a565b91505092915050565b6000620008ac601f836200095d565b9150620008b98262000a9d565b602082019050919050565b6000620008d3602a836200095d565b9150620008e08262000ac6565b604082019050919050565b620008f681620009ff565b82525050565b6000602082019050818103600083015262000917816200089d565b9050919050565b600060208201905081810360008301526200093981620008c4565b9050919050565b6000602082019050620009576000830184620008eb565b92915050565b600082825260208201905092915050565b60006200097b82620009ff565b91506200098883620009ff565b9250827fffffffffffffffffffffffffffffffffffffffffffffffffffffffffffffffff03821115620009c057620009bf62000a3f565b5b828201905092915050565b6000620009d882620009df565b9050919050565b600073ffffffffffffffffffffffffffffffffffffffff82169050919050565b6000819050919050565b6000600282049050600182168062000a2257607f821691505b6020821081141562000a395762000a3862000a6e565b5b50919050565b7f4e487b7100000000000000000000000000000000000000000000000000000000600052601160045260246000fd5b7f4e487b7100000000000000000000000000000000000000000000000000000000600052602260045260246000fd5b7f45524332303a206d696e7420746f20746865207a65726f206164647265737300600082015250565b7f45524332305061757361626c653a20746f6b656e207472616e7366657220776860008201527f696c652070617573656400000000000000000000000000000000000000000000602082015250565b62000b2081620009cb565b811462000b2c57600080fd5b50565b6136648062000b3f6000396000f3fe608060405234801561001057600080fd5b50600436106101e55760003560e01c8063715018a61161010f578063a457c2d7116100a2578063d547741f11610071578063d547741f14610594578063dd62ed3e146105b0578063e63ab1e9146105e0578063f2fde38b146105fe576101e5565b8063a457c2d7146104e6578063a9059cbb14610516578063ca15c87314610546578063d539139314610576576101e5565b80639010d07c116100de5780639010d07c1461044a57806391d148541461047a57806395d89b41146104aa578063a217fddf146104c8576101e5565b8063715018a6146103fc57806379cc6790146104065780638456cb59146104225780638da5cb5b1461042c576101e5565b8063313ce5671161018757806340c10f191161015657806340c10f191461037657806342966c68146103925780635c975abb146103ae57806370a08231146103cc576101e5565b8063313ce5671461030257806336568abe14610320578063395093511461033c5780633f4ba83a1461036c576101e5565b806318160ddd116101c357806318160ddd1461026857806323b872dd14610286578063248a9ca3146102b65780632f2ff15d146102e6576101e5565b806301ffc9a7146101ea57806306fdde031461021a578063095ea7b314610238575b600080fd5b61020460048036038101906101ff9190612638565b61061a565b6040516102119190612a96565b60405180910390f35b610222610694565b60405161022f9190612acc565b60405180910390f35b610252600480360381019061024d919061255b565b610726565b60405161025f9190612a96565b60405180910390f35b610270610749565b60405161027d9190612d6e565b60405180910390f35b6102a0600480360381019061029b919061250c565b610753565b6040516102ad9190612a96565b60405180910390f35b6102d060048036038101906102cb9190612597565b610782565b6040516102dd9190612ab1565b60405180910390f35b61030060048036038101906102fb91906125c0565b6107a1565b005b61030a6107ca565b6040516103179190612d89565b60405180910390f35b61033a600480360381019061033591906125c0565b6107d3565b005b6103566004803603810190610351919061255b565b610856565b6040516103639190612a96565b60405180910390f35b610374610900565b005b610390600480360381019061038b919061255b565b61097a565b005b6103ac60048036038101906103a79190612661565b6109f8565b005b6103b6610a0c565b6040516103c39190612a96565b60405180910390f35b6103e660048036038101906103e191906124a7565b610a23565b6040516103f39190612d6e565b60405180910390f35b610404610a6c565b005b610420600480360381019061041b919061255b565b610af4565b005b61042a610b14565b005b610434610b8e565b6040516104419190612a7b565b60405180910390f35b610464600480360381019061045f91906125fc565b610bb8565b6040516104719190612a7b565b60405180910390f35b610494600480360381019061048f91906125c0565b610be7565b6040516104a19190612a96565b60405180910390f35b6104b2610c51565b6040516104bf9190612acc565b60405180910390f35b6104d0610ce3565b6040516104dd9190612ab1565b60405180910390f35b61050060048036038101906104fb919061255b565b610cea565b60405161050d9190612a96565b60405180910390f35b610530600480360381019061052b919061255b565b610dd4565b60405161053d9190612a96565b60405180910390f35b610560600480360381019061055b9190612597565b610df7565b60405161056d9190612d6e565b60405180910390f35b61057e610e1b565b60405161058b9190612ab1565b60405180910390f35b6105ae60048036038101906105a991906125c0565b610e3f565b005b6105ca60048036038101906105c591906124d0565b610e68565b6040516105d79190612d6e565b60405180910390f35b6105e8610eef565b6040516105f59190612ab1565b60405180910390f35b610618600480360381019061061391906124a7565b610f13565b005b60007f5a05180f000000000000000000000000000000000000000000000000000000007bffffffffffffffffffffffffffffffffffffffffffffffffffffffff1916827bffffffffffffffffffffffffffffffffffffffffffffffffffffffff1916148061068d575061068c82611178565b5b9050919050565b6060600580546106a390612f97565b80601f01602080910402602001604051908101604052809291908181526020018280546106cf90612f97565b801561071c5780601f106106f15761010080835404028352916020019161071c565b820191906000526020600020905b8154815290600101906020018083116106ff57829003601f168201915b5050505050905090565b6000806107316111f2565b905061073e8185856111fa565b600191505092915050565b6000600454905090565b60008061075e6111f2565b905061076b8582856113c5565b610776858585611451565b60019150509392505050565b6000806000838152602001908152602001600020600101549050919050565b6107aa82610782565b6107bb816107b66111f2565b6116d5565b6107c58383611772565b505050565b60006012905090565b6107db6111f2565b73ffffffffffffffffffffffffffffffffffffffff168173ffffffffffffffffffffffffffffffffffffffff1614610848576040517f08c379a000000000000000000000000000000000000000000000000000000000815260040161083f90612d0e565b60405180910390fd5b61085282826117a6565b5050565b6000806108616111f2565b90506108f5818585600360008673ffffffffffffffffffffffffffffffffffffffff1673ffffffffffffffffffffffffffffffffffffffff16815260200190815260200160002060008973ffffffffffffffffffffffffffffffffffffffff1673ffffffffffffffffffffffffffffffffffffffff168152602001908152602001600020546108f09190612dcb565b6111fa565b600191505092915050565b6109317f65d7a28e3265b37a6474929f336521b332c1681b933f6cb9f3376673440d862a61092c6111f2565b610be7565b610970576040517f08c379a000000000000000000000000000000000000000000000000000000000815260040161096790612b6e565b60405180910390fd5b6109786117da565b565b6109ab7f9f2df0fed2c77648de5860a4cc508cd0818c85b8b8a1ab4ceeef8d981c8956a66109a66111f2565b610be7565b6109ea576040517f08c379a00000000000000000000000000000000000000000000000000000000081526004016109e190612c4e565b60405180910390fd5b6109f4828261187c565b5050565b610a09610a036111f2565b826119dd565b50565b6000600760009054906101000a900460ff16905090565b6000600260008373ffffffffffffffffffffffffffffffffffffffff1673ffffffffffffffffffffffffffffffffffffffff168152602001908152602001600020549050919050565b610a746111f2565b73ffffffffffffffffffffffffffffffffffffffff16610a92610b8e565b73ffffffffffffffffffffffffffffffffffffffff1614610ae8576040517f08c379a0000000000000000000000000000000000000000000000000000000008152600401610adf90612c2e565b60405180910390fd5b610af26000611bb6565b565b610b0682610b006111f2565b836113c5565b610b1082826119dd565b5050565b610b457f65d7a28e3265b37a6474929f336521b332c1681b933f6cb9f3376673440d862a610b406111f2565b610be7565b610b84576040517f08c379a0000000000000000000000000000000000000000000000000000000008152600401610b7b90612cce565b60405180910390fd5b610b8c611c7c565b565b6000600760019054906101000a900473ffffffffffffffffffffffffffffffffffffffff16905090565b6000610bdf8260016000868152602001908152602001600020611d1f90919063ffffffff16565b905092915050565b600080600084815260200190815260200160002060000160008373ffffffffffffffffffffffffffffffffffffffff1673ffffffffffffffffffffffffffffffffffffffff16815260200190815260200160002060009054906101000a900460ff16905092915050565b606060068054610c6090612f97565b80601f0160208091040260200160405190810160405280929190818152602001828054610c8c90612f97565b8015610cd95780601f10610cae57610100808354040283529160200191610cd9565b820191906000526020600020905b815481529060010190602001808311610cbc57829003601f168201915b5050505050905090565b6000801b81565b600080610cf56111f2565b90506000600360008373ffffffffffffffffffffffffffffffffffffffff1673ffffffffffffffffffffffffffffffffffffffff16815260200190815260200160002060008673ffffffffffffffffffffffffffffffffffffffff1673ffffffffffffffffffffffffffffffffffffffff16815260200190815260200160002054905083811015610dbb576040517f08c379a0000000000000000000000000000000000000000000000000000000008152600401610db290612cee565b60405180910390fd5b610dc882868684036111fa565b60019250505092915050565b600080610ddf6111f2565b9050610dec818585611451565b600191505092915050565b6000610e1460016000848152602001908152602001600020611d39565b9050919050565b7f9f2df0fed2c77648de5860a4cc508cd0818c85b8b8a1ab4ceeef8d981c8956a681565b610e4882610782565b610e5981610e546111f2565b6116d5565b610e6383836117a6565b505050565b6000600360008473ffffffffffffffffffffffffffffffffffffffff1673ffffffffffffffffffffffffffffffffffffffff16815260200190815260200160002060008373ffffffffffffffffffffffffffffffffffffffff1673ffffffffffffffffffffffffffffffffffffffff16815260200190815260200160002054905092915050565b7f65d7a28e3265b37a6474929f336521b332c1681b933f6cb9f3376673440d862a81565b610f1b6111f2565b73ffffffffffffffffffffffffffffffffffffffff16610f39610b8e565b73ffffffffffffffffffffffffffffffffffffffff1614610f8f576040517f08c379a0000000000000000000000000000000000000000000000000000000008152600401610f8690612c2e565b60405180910390fd5b600073ffffffffffffffffffffffffffffffffffffffff168173ffffffffffffffffffffffffffffffffffffffff161415610fff576040517f08c379a0000000000000000000000000000000000000000000000000000000008152600401610ff690612b8e565b60405180910390fd5b61100881611bb6565b50565b6110158282610be7565b6110e757600160008084815260200190815260200160002060000160008373ffffffffffffffffffffffffffffffffffffffff1673ffffffffffffffffffffffffffffffffffffffff16815260200190815260200160002060006101000a81548160ff02191690831515021790555061108c6111f2565b73ffffffffffffffffffffffffffffffffffffffff168173ffffffffffffffffffffffffffffffffffffffff16837f2f8788117e7eff1d82e926ec794901d17c78024a50270940304540a733656f0d60405160405180910390a45b5050565b6000611113836000018373ffffffffffffffffffffffffffffffffffffffff1660001b611d4e565b905092915050565b611126838383611173565b61112e610a0c565b1561116e576040517f08c379a000000000000000000000000000000000000000000000000000000000815260040161116590612d4e565b60405180910390fd5b505050565b505050565b60007f7965db0b000000000000000000000000000000000000000000000000000000007bffffffffffffffffffffffffffffffffffffffffffffffffffffffff1916827bffffffffffffffffffffffffffffffffffffffffffffffffffffffff191614806111eb57506111ea82611dbe565b5b9050919050565b600033905090565b600073ffffffffffffffffffffffffffffffffffffffff168373ffffffffffffffffffffffffffffffffffffffff16141561126a576040517f08c379a000000000000000000000000000000000000000000000000000000000815260040161126190612cae565b60405180910390fd5b600073ffffffffffffffffffffffffffffffffffffffff168273ffffffffffffffffffffffffffffffffffffffff1614156112da576040517f08c379a00000000000000000000000000000000000000000000000000000000081526004016112d190612bae565b60405180910390fd5b80600360008573ffffffffffffffffffffffffffffffffffffffff1673ffffffffffffffffffffffffffffffffffffffff16815260200190815260200160002060008473ffffffffffffffffffffffffffffffffffffffff1673ffffffffffffffffffffffffffffffffffffffff168152602001908152602001600020819055508173ffffffffffffffffffffffffffffffffffffffff168373ffffffffffffffffffffffffffffffffffffffff167f8c5be1e5ebec7d5bd14f71427d1e84f3dd0314c0f7b2291e5b200ac8c7c3b925836040516113b89190612d6e565b60405180910390a3505050565b60006113d18484610e68565b90507fffffffffffffffffffffffffffffffffffffffffffffffffffffffffffffffff811461144b578181101561143d576040517f08c379a000000000000000000000000000000000000000000000000000000000815260040161143490612bce565b60405180910390fd5b61144a84848484036111fa565b5b50505050565b600073ffffffffffffffffffffffffffffffffffffffff168373ffffffffffffffffffffffffffffffffffffffff1614156114c1576040517f08c379a00000000000000000000000000000000000000000000000000000000081526004016114b890612c8e565b60405180910390fd5b600073ffffffffffffffffffffffffffffffffffffffff168273ffffffffffffffffffffffffffffffffffffffff161415611531576040517f08c379a000000000000000000000000000000000000000000000000000000000815260040161152890612b0e565b60405180910390fd5b61153c838383611e28565b6000600260008573ffffffffffffffffffffffffffffffffffffffff1673ffffffffffffffffffffffffffffffffffffffff168152602001908152602001600020549050818110156115c3576040517f08c379a00000000000000000000000000000000000000000000000000000000081526004016115ba90612bee565b60405180910390fd5b818103600260008673ffffffffffffffffffffffffffffffffffffffff1673ffffffffffffffffffffffffffffffffffffffff1681526020019081526020016000208190555081600260008573ffffffffffffffffffffffffffffffffffffffff1673ffffffffffffffffffffffffffffffffffffffff16815260200190815260200160002060008282546116589190612dcb565b925050819055508273ffffffffffffffffffffffffffffffffffffffff168473ffffffffffffffffffffffffffffffffffffffff167fddf252ad1be2c89b69c2b068fc378daa952ba7f163c4a11628f55a4df523b3ef846040516116bc9190612d6e565b60405180910390a36116cf848484611e38565b50505050565b6116df8282610be7565b61176e576117048173ffffffffffffffffffffffffffffffffffffffff166014611e3d565b6117128360001c6020611e3d565b604051602001611723929190612a41565b6040516020818303038152906040526040517f08c379a00000000000000000000000000000000000000000000000000000000081526004016117659190612acc565b60405180910390fd5b5050565b61177c828261100b565b6117a181600160008581526020019081526020016000206110eb90919063ffffffff16565b505050565b6117b08282612137565b6117d5816001600085815260200190815260200160002061221890919063ffffffff16565b505050565b6117e2610a0c565b611821576040517f08c379a000000000000000000000000000000000000000000000000000000000815260040161181890612b2e565b60405180910390fd5b6000600760006101000a81548160ff0219169083151502179055507f5db9ee0a495bf2e6ff9c91a7834c1ba4fdd244a5e8aa4e537bd38aeae4b073aa6118656111f2565b6040516118729190612a7b565b60405180910390a1565b600073ffffffffffffffffffffffffffffffffffffffff168273ffffffffffffffffffffffffffffffffffffffff1614156118ec576040517f08c379a00000000000000000000000000000000000000000000000000000000081526004016118e390612d2e565b60405180910390fd5b6118f860008383611e28565b806004600082825461190a9190612dcb565b9250508190555080600260008473ffffffffffffffffffffffffffffffffffffffff1673ffffffffffffffffffffffffffffffffffffffff16815260200190815260200160002060008282546119609190612dcb565b925050819055508173ffffffffffffffffffffffffffffffffffffffff16600073ffffffffffffffffffffffffffffffffffffffff167fddf252ad1be2c89b69c2b068fc378daa952ba7f163c4a11628f55a4df523b3ef836040516119c59190612d6e565b60405180910390a36119d960008383611e38565b5050565b600073ffffffffffffffffffffffffffffffffffffffff168273ffffffffffffffffffffffffffffffffffffffff161415611a4d576040517f08c379a0000000000000000000000000000000000000000000000000000000008152600401611a4490612c6e565b60405180910390fd5b611a5982600083611e28565b6000600260008473ffffffffffffffffffffffffffffffffffffffff1673ffffffffffffffffffffffffffffffffffffffff16815260200190815260200160002054905081811015611ae0576040517f08c379a0000000000000000000000000000000000000000000000000000000008152600401611ad790612b4e565b60405180910390fd5b818103600260008573ffffffffffffffffffffffffffffffffffffffff1673ffffffffffffffffffffffffffffffffffffffff168152602001908152602001600020819055508160046000828254611b389190612e7b565b92505081905550600073ffffffffffffffffffffffffffffffffffffffff168373ffffffffffffffffffffffffffffffffffffffff167fddf252ad1be2c89b69c2b068fc378daa952ba7f163c4a11628f55a4df523b3ef84604051611b9d9190612d6e565b60405180910390a3611bb183600084611e38565b505050565b6000600760019054906101000a900473ffffffffffffffffffffffffffffffffffffffff16905081600760016101000a81548173ffffffffffffffffffffffffffffffffffffffff021916908373ffffffffffffffffffffffffffffffffffffffff1602179055508173ffffffffffffffffffffffffffffffffffffffff168173ffffffffffffffffffffffffffffffffffffffff167f8be0079c531659141344cd1fd0a4f28419497f9722a3daafe3b4186f6b6457e060405160405180910390a35050565b611c84610a0c565b15611cc4576040517f08c379a0000000000000000000000000000000000000000000000000000000008152600401611cbb90612c0e565b60405180910390fd5b6001600760006101000a81548160ff0219169083151502179055507f62e78cea01bee320cd4e420270b5ea74000d11b0c9f74754ebdbfc544b05a258611d086111f2565b604051611d159190612a7b565b60405180910390a1565b6000611d2e8360000183612248565b60001c905092915050565b6000611d4782600001612299565b9050919050565b6000611d5a83836122aa565b611db3578260000182908060018154018082558091505060019003906000526020600020016000909190919091505582600001805490508360010160008481526020019081526020016000208190555060019050611db8565b600090505b92915050565b60007f01ffc9a7000000000000000000000000000000000000000000000000000000007bffffffffffffffffffffffffffffffffffffffffffffffffffffffff1916827bffffffffffffffffffffffffffffffffffffffffffffffffffffffff1916149050919050565b611e3383838361111b565b505050565b505050565b606060006002836002611e509190612e21565b611e5a9190612dcb565b67ffffffffffffffff811115611e99577f4e487b7100000000000000000000000000000000000000000000000000000000600052604160045260246000fd5b6040519080825280601f01601f191660200182016040528015611ecb5781602001600182028036833780820191505090505b5090507f300000000000000000000000000000000000000000000000000000000000000081600081518110611f29577f4e487b7100000000000000000000000000000000000000000000000000000000600052603260045260246000fd5b60200101907effffffffffffffffffffffffffffffffffffffffffffffffffffffffffffff1916908160001a9053507f780000000000000000000000000000000000000000000000000000000000000081600181518110611fb3577f4e487b7100000000000000000000000000000000000000000000000000000000600052603260045260246000fd5b60200101907effffffffffffffffffffffffffffffffffffffffffffffffffffffffffffff1916908160001a90535060006001846002611ff39190612e21565b611ffd9190612dcb565b90505b60018111156120e9577f3031323334353637383961626364656600000000000000000000000000000000600f861660108110612065577f4e487b7100000000000000000000000000000000000000000000000000000000600052603260045260246000fd5b1a60f81b8282815181106120a2577f4e487b7100000000000000000000000000000000000000000000000000000000600052603260045260246000fd5b60200101907effffffffffffffffffffffffffffffffffffffffffffffffffffffffffffff1916908160001a905350600485901c9450806120e290612f6d565b9050612000565b506000841461212d576040517f08c379a000000000000000000000000000000000000000000000000000000000815260040161212490612aee565b60405180910390fd5b8091505092915050565b6121418282610be7565b1561221457600080600084815260200190815260200160002060000160008373ffffffffffffffffffffffffffffffffffffffff1673ffffffffffffffffffffffffffffffffffffffff16815260200190815260200160002060006101000a81548160ff0219169083151502179055506121b96111f2565b73ffffffffffffffffffffffffffffffffffffffff168173ffffffffffffffffffffffffffffffffffffffff16837ff6391f5c32d9c69d2a47ea670b442974b53935d1edc7fd64eb21e047a839171b60405160405180910390a45b5050565b6000612240836000018373ffffffffffffffffffffffffffffffffffffffff1660001b6122cd565b905092915050565b6000826000018281548110612286577f4e487b7100000000000000000000000000000000000000000000000000000000600052603260045260246000fd5b9060005260206000200154905092915050565b600081600001805490509050919050565b600080836001016000848152602001908152602001600020541415905092915050565b600080836001016000848152602001908152602001600020549050600081146124475760006001826122ff9190612e7b565b90506000600186600001805490506123179190612e7b565b90508181146123d257600086600001828154811061235e577f4e487b7100000000000000000000000000000000000000000000000000000000600052603260045260246000fd5b90600052602060002001549050808760000184815481106123a8577f4e487b7100000000000000000000000000000000000000000000000000000000600052603260045260246000fd5b90600052602060002001819055508387600101600083815260200190815260200160002081905550505b8560000180548061240c577f4e487b7100000000000000000000000000000000000000000000000000000000600052603160045260246000fd5b60019003818190600052602060002001600090559055856001016000868152602001908152602001600020600090556001935050505061244d565b60009150505b92915050565b600081359050612462816135d2565b92915050565b600081359050612477816135e9565b92915050565b60008135905061248c81613600565b92915050565b6000813590506124a181613617565b92915050565b6000602082840312156124b957600080fd5b60006124c784828501612453565b91505092915050565b600080604083850312156124e357600080fd5b60006124f185828601612453565b925050602061250285828601612453565b9150509250929050565b60008060006060848603121561252157600080fd5b600061252f86828701612453565b935050602061254086828701612453565b925050604061255186828701612492565b9150509250925092565b6000806040838503121561256e57600080fd5b600061257c85828601612453565b925050602061258d85828601612492565b9150509250929050565b6000602082840312156125a957600080fd5b60006125b784828501612468565b91505092915050565b600080604083850312156125d357600080fd5b60006125e185828601612468565b92505060206125f285828601612453565b9150509250929050565b6000806040838503121561260f57600080fd5b600061261d85828601612468565b925050602061262e85828601612492565b9150509250929050565b60006020828403121561264a57600080fd5b60006126588482850161247d565b91505092915050565b60006020828403121561267357600080fd5b600061268184828501612492565b91505092915050565b61269381612eaf565b82525050565b6126a281612ec1565b82525050565b6126b181612ecd565b82525050565b60006126c282612da4565b6126cc8185612daf565b93506126dc818560208601612f3a565b6126e581613027565b840191505092915050565b60006126fb82612da4565b6127058185612dc0565b9350612715818560208601612f3a565b80840191505092915050565b600061272e602083612daf565b915061273982613038565b602082019050919050565b6000612751602383612daf565b915061275c82613061565b604082019050919050565b6000612774601483612daf565b915061277f826130b0565b602082019050919050565b6000612797602283612daf565b91506127a2826130d9565b604082019050919050565b60006127ba603983612daf565b91506127c582613128565b604082019050919050565b60006127dd602683612daf565b91506127e882613177565b604082019050919050565b6000612800602283612daf565b915061280b826131c6565b604082019050919050565b6000612823601d83612daf565b915061282e82613215565b602082019050919050565b6000612846602683612daf565b91506128518261323e565b604082019050919050565b6000612869601083612daf565b91506128748261328d565b602082019050919050565b600061288c602083612daf565b9150612897826132b6565b602082019050919050565b60006128af603683612daf565b91506128ba826132df565b604082019050919050565b60006128d2602183612daf565b91506128dd8261332e565b604082019050919050565b60006128f5602583612daf565b91506129008261337d565b604082019050919050565b6000612918602483612daf565b9150612923826133cc565b604082019050919050565b600061293b603783612daf565b91506129468261341b565b604082019050919050565b600061295e601783612dc0565b91506129698261346a565b601782019050919050565b6000612981602583612daf565b915061298c82613493565b604082019050919050565b60006129a4601183612dc0565b91506129af826134e2565b601182019050919050565b60006129c7602f83612daf565b91506129d28261350b565b604082019050919050565b60006129ea601f83612daf565b91506129f58261355a565b602082019050919050565b6000612a0d602a83612daf565b9150612a1882613583565b604082019050919050565b612a2c81612f23565b82525050565b612a3b81612f2d565b82525050565b6000612a4c82612951565b9150612a5882856126f0565b9150612a6382612997565b9150612a6f82846126f0565b91508190509392505050565b6000602082019050612a90600083018461268a565b92915050565b6000602082019050612aab6000830184612699565b92915050565b6000602082019050612ac660008301846126a8565b92915050565b60006020820190508181036000830152612ae681846126b7565b905092915050565b60006020820190508181036000830152612b0781612721565b9050919050565b60006020820190508181036000830152612b2781612744565b9050919050565b60006020820190508181036000830152612b4781612767565b9050919050565b60006020820190508181036000830152612b678161278a565b9050919050565b60006020820190508181036000830152612b87816127ad565b9050919050565b60006020820190508181036000830152612ba7816127d0565b9050919050565b60006020820190508181036000830152612bc7816127f3565b9050919050565b60006020820190508181036000830152612be781612816565b9050919050565b60006020820190508181036000830152612c0781612839565b9050919050565b60006020820190508181036000830152612c278161285c565b9050919050565b60006020820190508181036000830152612c478161287f565b9050919050565b60006020820190508181036000830152612c67816128a2565b9050919050565b60006020820190508181036000830152612c87816128c5565b9050919050565b60006020820190508181036000830152612ca7816128e8565b9050919050565b60006020820190508181036000830152612cc78161290b565b9050919050565b60006020820190508181036000830152612ce78161292e565b9050919050565b60006020820190508181036000830152612d0781612974565b9050919050565b60006020820190508181036000830152612d27816129ba565b9050919050565b60006020820190508181036000830152612d47816129dd565b9050919050565b60006020820190508181036000830152612d6781612a00565b9050919050565b6000602082019050612d836000830184612a23565b92915050565b6000602082019050612d9e6000830184612a32565b92915050565b600081519050919050565b600082825260208201905092915050565b600081905092915050565b6000612dd682612f23565b9150612de183612f23565b9250827fffffffffffffffffffffffffffffffffffffffffffffffffffffffffffffffff03821115612e1657612e15612fc9565b5b828201905092915050565b6000612e2c82612f23565b9150612e3783612f23565b9250817fffffffffffffffffffffffffffffffffffffffffffffffffffffffffffffffff0483118215151615612e7057612e6f612fc9565b5b828202905092915050565b6000612e8682612f23565b9150612e9183612f23565b925082821015612ea457612ea3612fc9565b5b828203905092915050565b6000612eba82612f03565b9050919050565b60008115159050919050565b6000819050919050565b60007fffffffff0000000000000000000000000000000000000000000000000000000082169050919050565b600073ffffffffffffffffffffffffffffffffffffffff82169050919050565b6000819050919050565b600060ff82169050919050565b60005b83811015612f58578082015181840152602081019050612f3d565b83811115612f67576000848401525b50505050565b6000612f7882612f23565b91506000821415612f8c57612f8b612fc9565b5b600182039050919050565b60006002820490506001821680612faf57607f821691505b60208210811415612fc357612fc2612ff8565b5b50919050565b7f4e487b7100000000000000000000000000000000000000000000000000000000600052601160045260246000fd5b7f4e487b7100000000000000000000000000000000000000000000000000000000600052602260045260246000fd5b6000601f19601f8301169050919050565b7f537472696e67733a20686578206c656e67746820696e73756666696369656e74600082015250565b7f45524332303a207472616e7366657220746f20746865207a65726f206164647260008201527f6573730000000000000000000000000000000000000000000000000000000000602082015250565b7f5061757361626c653a206e6f7420706175736564000000000000000000000000600082015250565b7f45524332303a206275726e20616d6f756e7420657863656564732062616c616e60008201527f6365000000000000000000000000000000000000000000000000000000000000602082015250565b7f45524332305072657365744d696e7465725061757365723a206d75737420686160008201527f76652070617573657220726f6c6520746f20756e706175736500000000000000602082015250565b7f4f776e61626c653a206e6577206f776e657220697320746865207a65726f206160008201527f6464726573730000000000000000000000000000000000000000000000000000602082015250565b7f45524332303a20617070726f766520746f20746865207a65726f20616464726560008201527f7373000000000000000000000000000000000000000000000000000000000000602082015250565b7f45524332303a20696e73756666696369656e7420616c6c6f77616e6365000000600082015250565b7f45524332303a207472616e7366657220616d6f756e742065786365656473206260008201527f616c616e63650000000000000000000000000000000000000000000000000000602082015250565b7f5061757361626c653a2070617573656400000000000000000000000000000000600082015250565b7f4f776e61626c653a2063616c6c6572206973206e6f7420746865206f776e6572600082015250565b7f45524332305072657365744d696e7465725061757365723a206d75737420686160008201527f7665206d696e74657220726f6c6520746f206d696e7400000000000000000000602082015250565b7f45524332303a206275726e2066726f6d20746865207a65726f2061646472657360008201527f7300000000000000000000000000000000000000000000000000000000000000602082015250565b7f45524332303a207472616e736665722066726f6d20746865207a65726f20616460008201527f6472657373000000000000000000000000000000000000000000000000000000602082015250565b7f45524332303a20617070726f76652066726f6d20746865207a65726f2061646460008201527f7265737300000000000000000000000000000000000000000000000000000000602082015250565b7f45524332305072657365744d696e7465725061757365723a206d75737420686160008201527f76652070617573657220726f6c6520746f207061757365000000000000000000602082015250565b7f416363657373436f6e74726f6c3a206163636f756e7420000000000000000000600082015250565b7f45524332303a2064656372656173656420616c6c6f77616e63652062656c6f7760008201527f207a65726f000000000000000000000000000000000000000000000000000000602082015250565b7f206973206d697373696e6720726f6c6520000000000000000000000000000000600082015250565b7f416363657373436f6e74726f6c3a2063616e206f6e6c792072656e6f756e636560008201527f20726f6c657320666f722073656c660000000000000000000000000000000000602082015250565b7f45524332303a206d696e7420746f20746865207a65726f206164647265737300600082015250565b7f45524332305061757361626c653a20746f6b656e207472616e7366657220776860008201527f696c652070617573656400000000000000000000000000000000000000000000602082015250565b6135db81612eaf565b81146135e657600080fd5b50565b6135f281612ecd565b81146135fd57600080fd5b50565b61360981612ed7565b811461361457600080fd5b50565b61362081612f23565b811461362b57600080fd5b5056fea2646970667358221220990f32ad4cdd81779a521cd7e5b01aef8af2e4a2f818635dbe37e33e4f3cb0b264736f6c63430008040033",
  "linkReferences": {},
  "deployedLinkReferences": {}
}