{
  "_format": "hh-sol-artifact-1",
  "contractName": "Router",
  "sourceName": "contracts/Router.sol",
  "abi": [
    {
      "anonymous": false,
      "inputs": [
        {
          "indexed": true,
          "internalType": "address",
          "name": "previousOwner",
          "type": "address"
        },
        {
          "indexed": true,
          "internalType": "address",
          "name": "newOwner",
          "type": "address"
        }
      ],
      "name": "OwnershipTransferred",
      "type": "event"
    },
    {
      "anonymous": false,
      "inputs": [
        {
          "indexed": false,
          "internalType": "address",
          "name": "sender",
          "type": "address"
        },
        {
          "indexed": false,
          "internalType": "uint256",
          "name": "amount",
          "type": "uint256"
        },
        {
          "indexed": false,
          "internalType": "address",
          "name": "nativeTokenAddress",
          "type": "address"
        }
      ],
      "name": "TokenBurned",
      "type": "event"
    },
    {
      "anonymous": false,
      "inputs": [
        {
          "indexed": false,
          "internalType": "address",
          "name": "receiverAddress",
          "type": "address"
        },
        {
          "indexed": false,
          "internalType": "uint256",
          "name": "amount",
          "type": "uint256"
        },
        {
          "indexed": false,
          "internalType": "address",
          "name": "wrappedTokenAddress",
          "type": "address"
        }
      ],
      "name": "TokenClaimed",
      "type": "event"
    },
    {
      "anonymous": false,
      "inputs": [
        {
          "indexed": false,
          "internalType": "address",
          "name": "sender",
          "type": "address"
        },
        {
          "indexed": false,
          "internalType": "uint256",
          "name": "amount",
          "type": "uint256"
        },
        {
          "indexed": false,
          "internalType": "address",
          "name": "tokenContractAddress",
          "type": "address"
        }
      ],
      "name": "TokenLocked",
      "type": "event"
    },
    {
      "anonymous": false,
      "inputs": [
        {
          "indexed": false,
          "internalType": "address",
          "name": "receiverAddress",
          "type": "address"
        },
        {
          "indexed": false,
          "internalType": "address",
          "name": "nativeTokenAddress",
          "type": "address"
        },
        {
          "indexed": false,
          "internalType": "uint256",
          "name": "amount",
          "type": "uint256"
        }
      ],
      "name": "TokenReleased",
      "type": "event"
    },
    {
      "inputs": [
        {
          "internalType": "address",
          "name": "wrappedTokenAddress",
          "type": "address"
        },
        {
          "internalType": "address",
          "name": "nativeTokenAddress",
          "type": "address"
        },
        {
          "internalType": "uint256",
          "name": "amount",
          "type": "uint256"
        }
      ],
      "name": "burn",
      "outputs": [],
      "stateMutability": "nonpayable",
      "type": "function"
    },
    {
      "inputs": [
        {
          "internalType": "address",
          "name": "receiverAddress",
          "type": "address"
        },
        {
          "internalType": "address",
          "name": "tokenContractAddress",
          "type": "address"
        },
        {
          "internalType": "uint256",
          "name": "amount",
          "type": "uint256"
        }
      ],
      "name": "claim",
      "outputs": [],
      "stateMutability": "nonpayable",
      "type": "function"
    },
    {
      "inputs": [
        {
          "internalType": "address",
          "name": "tokenContractAddress",
          "type": "address"
        },
        {
          "internalType": "uint256",
          "name": "amount",
          "type": "uint256"
        }
      ],
      "name": "lock",
      "outputs": [],
      "stateMutability": "nonpayable",
      "type": "function"
    },
    {
      "inputs": [
        {
          "internalType": "address",
          "name": "",
          "type": "address"
        }
      ],
      "name": "nativeToWrapped",
      "outputs": [
        {
          "internalType": "address",
          "name": "",
          "type": "address"
        }
      ],
      "stateMutability": "view",
      "type": "function"
    },
    {
      "inputs": [],
      "name": "nativeToken",
      "outputs": [
        {
          "internalType": "contract ERC20",
          "name": "",
          "type": "address"
        }
      ],
      "stateMutability": "view",
      "type": "function"
    },
    {
      "inputs": [],
      "name": "owner",
      "outputs": [
        {
          "internalType": "address",
          "name": "",
          "type": "address"
        }
      ],
      "stateMutability": "view",
      "type": "function"
    },
    {
      "inputs": [
        {
          "internalType": "address",
          "name": "nativeTokenAddress",
          "type": "address"
        },
        {
          "internalType": "address",
          "name": "receiverAddress",
          "type": "address"
        },
        {
          "internalType": "uint256",
          "name": "amount",
          "type": "uint256"
        }
      ],
      "name": "release",
      "outputs": [],
      "stateMutability": "nonpayable",
      "type": "function"
    },
    {
      "inputs": [],
      "name": "renounceOwnership",
      "outputs": [],
      "stateMutability": "nonpayable",
      "type": "function"
    },
    {
      "inputs": [
        {
          "internalType": "address",
          "name": "newOwner",
          "type": "address"
        }
      ],
      "name": "transferOwnership",
      "outputs": [],
      "stateMutability": "nonpayable",
      "type": "function"
    },
    {
      "inputs": [
        {
          "internalType": "address",
          "name": "",
          "type": "address"
        },
        {
          "internalType": "address",
          "name": "",
          "type": "address"
        }
      ],
      "name": "userToLocked",
      "outputs": [
        {
          "internalType": "uint256",
          "name": "",
          "type": "uint256"
        }
      ],
      "stateMutability": "view",
      "type": "function"
    }
  ],
  "bytecode": "0x608060405234801561001057600080fd5b5061002d61002261003260201b60201c565b61003a60201b60201c565b6100fe565b600033905090565b60008060009054906101000a900473ffffffffffffffffffffffffffffffffffffffff169050816000806101000a81548173ffffffffffffffffffffffffffffffffffffffff021916908373ffffffffffffffffffffffffffffffffffffffff1602179055508173ffffffffffffffffffffffffffffffffffffffff168173ffffffffffffffffffffffffffffffffffffffff167f8be0079c531659141344cd1fd0a4f28419497f9722a3daafe3b4186f6b6457e060405160405180910390a35050565b61513d8061010d6000396000f3fe60806040523480156200001157600080fd5b5060043610620000ac5760003560e01c8063a41712b8116200006f578063a41712b8146200013f578063b6596d771462000175578063e1758bd814620001ab578063f2fde38b14620001cd578063f6b911bc14620001ed57620000ac565b8063282d3fdf14620000b1578063715018a614620000d15780638bfb07c914620000dd5780638da5cb5b14620000fd578063996cba68146200011f575b600080fd5b620000cf6004803603810190620000c99190620010b6565b6200020d565b005b620000db6200049d565b005b620000fb6004803603810190620000f5919062001060565b6200052e565b005b62000107620007bf565b60405162000116919062001267565b60405180910390f35b6200013d600480360381019062000137919062001060565b620007e8565b005b6200015d600480360381019062000157919062000ff3565b62000ab6565b6040516200016c919062001267565b60405180910390f35b6200019360048036038101906200018d91906200101f565b62000ae9565b604051620001a2919062001429565b60405180910390f35b620001b562000b0e565b604051620001c491906200132b565b60405180910390f35b620001eb6004803603810190620001e5919062000ff3565b62000b34565b005b6200020b600480360381019062000205919062001060565b62000c38565b005b6000811162000253576040517f08c379a00000000000000000000000000000000000000000000000000000000081526004016200024a906200138c565b60405180910390fd5b81600160006101000a81548173ffffffffffffffffffffffffffffffffffffffff021916908373ffffffffffffffffffffffffffffffffffffffff160217905550600160009054906101000a900473ffffffffffffffffffffffffffffffffffffffff1673ffffffffffffffffffffffffffffffffffffffff166323b872dd3330846040518463ffffffff1660e01b8152600401620002f59392919062001284565b602060405180830381600087803b1580156200031057600080fd5b505af115801562000325573d6000803e3d6000fd5b505050506040513d601f19601f820116820180604052508101906200034b9190620010f7565b506000600460003373ffffffffffffffffffffffffffffffffffffffff1673ffffffffffffffffffffffffffffffffffffffff16815260200190815260200160002060008473ffffffffffffffffffffffffffffffffffffffff1673ffffffffffffffffffffffffffffffffffffffff1681526020019081526020016000205490508181620003db919062001457565b600460003373ffffffffffffffffffffffffffffffffffffffff1673ffffffffffffffffffffffffffffffffffffffff16815260200190815260200160002060008573ffffffffffffffffffffffffffffffffffffffff1673ffffffffffffffffffffffffffffffffffffffff168152602001908152602001600020819055507f3e7baec4ce33bbce55c9eefaa03613b6d201ad388f1f38cb0fb2d9a6a4a984dc3383856040516200049093929190620012ee565b60405180910390a1505050565b620004a762000ed4565b73ffffffffffffffffffffffffffffffffffffffff16620004c7620007bf565b73ffffffffffffffffffffffffffffffffffffffff161462000520576040517f08c379a00000000000000000000000000000000000000000000000000000000081526004016200051790620013ae565b60405180910390fd5b6200052c600062000edc565b565b6000811162000574576040517f08c379a00000000000000000000000000000000000000000000000000000000081526004016200056b906200136a565b60405180910390fd5b82600160006101000a81548173ffffffffffffffffffffffffffffffffffffffff021916908373ffffffffffffffffffffffffffffffffffffffff160217905550600160009054906101000a900473ffffffffffffffffffffffffffffffffffffffff1673ffffffffffffffffffffffffffffffffffffffff166323b872dd3084846040518463ffffffff1660e01b8152600401620006169392919062001284565b602060405180830381600087803b1580156200063157600080fd5b505af115801562000646573d6000803e3d6000fd5b505050506040513d601f19601f820116820180604052508101906200066c9190620010f7565b506000600460003373ffffffffffffffffffffffffffffffffffffffff1673ffffffffffffffffffffffffffffffffffffffff16815260200190815260200160002060008573ffffffffffffffffffffffffffffffffffffffff1673ffffffffffffffffffffffffffffffffffffffff1681526020019081526020016000205490508181620006fc9190620014b4565b600460003373ffffffffffffffffffffffffffffffffffffffff1673ffffffffffffffffffffffffffffffffffffffff16815260200190815260200160002060008673ffffffffffffffffffffffffffffffffffffffff1673ffffffffffffffffffffffffffffffffffffffff168152602001908152602001600020819055507fa5fa891a402945a5916b3b11763e3446525ced0e1d55a45cb3d3024f22ce4486838584604051620007b19392919062001284565b60405180910390a150505050565b60008060009054906101000a900473ffffffffffffffffffffffffffffffffffffffff16905090565b6000600360008473ffffffffffffffffffffffffffffffffffffffff1673ffffffffffffffffffffffffffffffffffffffff16815260200190815260200160002060009054906101000a900473ffffffffffffffffffffffffffffffffffffffff169050600073ffffffffffffffffffffffffffffffffffffffff168173ffffffffffffffffffffffffffffffffffffffff1614620008c85780600260006101000a81548173ffffffffffffffffffffffffffffffffffffffff021916908373ffffffffffffffffffffffffffffffffffffffff160217905550620009e0565b604051620008d69062000fa0565b620008e190620013f2565b604051809103906000f080158015620008fe573d6000803e3d6000fd5b50600260006101000a81548173ffffffffffffffffffffffffffffffffffffffff021916908373ffffffffffffffffffffffffffffffffffffffff160217905550600260009054906101000a900473ffffffffffffffffffffffffffffffffffffffff16600360008573ffffffffffffffffffffffffffffffffffffffff1673ffffffffffffffffffffffffffffffffffffffff16815260200190815260200160002060006101000a81548173ffffffffffffffffffffffffffffffffffffffff021916908373ffffffffffffffffffffffffffffffffffffffff1602179055505b600260009054906101000a900473ffffffffffffffffffffffffffffffffffffffff1673ffffffffffffffffffffffffffffffffffffffff166340c10f1985846040518363ffffffff1660e01b815260040162000a3f929190620012c1565b600060405180830381600087803b15801562000a5a57600080fd5b505af115801562000a6f573d6000803e3d6000fd5b505050507ff08bc7b248ec1a2916edaa0ea75d3b79151c53c790c568e83c1c8811d99fe43584838360405162000aa893929190620012ee565b60405180910390a150505050565b60036020528060005260406000206000915054906101000a900473ffffffffffffffffffffffffffffffffffffffff1681565b6004602052816000526040600020602052806000526040600020600091509150505481565b600160009054906101000a900473ffffffffffffffffffffffffffffffffffffffff1681565b62000b3e62000ed4565b73ffffffffffffffffffffffffffffffffffffffff1662000b5e620007bf565b73ffffffffffffffffffffffffffffffffffffffff161462000bb7576040517f08c379a000000000000000000000000000000000000000000000000000000000815260040162000bae90620013ae565b60405180910390fd5b600073ffffffffffffffffffffffffffffffffffffffff168173ffffffffffffffffffffffffffffffffffffffff16141562000c2a576040517f08c379a000000000000000000000000000000000000000000000000000000000815260040162000c219062001348565b60405180910390fd5b62000c358162000edc565b50565b8273ffffffffffffffffffffffffffffffffffffffff16600360008473ffffffffffffffffffffffffffffffffffffffff1673ffffffffffffffffffffffffffffffffffffffff16815260200190815260200160002060009054906101000a900473ffffffffffffffffffffffffffffffffffffffff1673ffffffffffffffffffffffffffffffffffffffff161462000d08576040517f08c379a000000000000000000000000000000000000000000000000000000000815260040162000cff90620013d0565b60405180910390fd5b82600260006101000a81548173ffffffffffffffffffffffffffffffffffffffff021916908373ffffffffffffffffffffffffffffffffffffffff160217905550600260009054906101000a900473ffffffffffffffffffffffffffffffffffffffff1673ffffffffffffffffffffffffffffffffffffffff166323b872dd3330846040518463ffffffff1660e01b815260040162000daa9392919062001284565b602060405180830381600087803b15801562000dc557600080fd5b505af115801562000dda573d6000803e3d6000fd5b505050506040513d601f19601f8201168201806040525081019062000e009190620010f7565b50600260009054906101000a900473ffffffffffffffffffffffffffffffffffffffff1673ffffffffffffffffffffffffffffffffffffffff166342966c68826040518263ffffffff1660e01b815260040162000e5e919062001429565b600060405180830381600087803b15801562000e7957600080fd5b505af115801562000e8e573d6000803e3d6000fd5b505050507f0fb81ee2634a482264d8193cc9e1703d814cb3f5a1e239dc2580496bf571df7733828460405162000ec793929190620012ee565b60405180910390a1505050565b600033905090565b60008060009054906101000a900473ffffffffffffffffffffffffffffffffffffffff169050816000806101000a81548173ffffffffffffffffffffffffffffffffffffffff021916908373ffffffffffffffffffffffffffffffffffffffff1602179055508173ffffffffffffffffffffffffffffffffffffffff168173ffffffffffffffffffffffffffffffffffffffff167f8be0079c531659141344cd1fd0a4f28419497f9722a3daafe3b4186f6b6457e060405160405180910390a35050565b613972806200179683390190565b60008135905062000fbf8162001747565b92915050565b60008151905062000fd68162001761565b92915050565b60008135905062000fed816200177b565b92915050565b6000602082840312156200100657600080fd5b6000620010168482850162000fae565b91505092915050565b600080604083850312156200103357600080fd5b6000620010438582860162000fae565b9250506020620010568582860162000fae565b9150509250929050565b6000806000606084860312156200107657600080fd5b6000620010868682870162000fae565b9350506020620010998682870162000fae565b9250506040620010ac8682870162000fdc565b9150509250925092565b60008060408385031215620010ca57600080fd5b6000620010da8582860162000fae565b9250506020620010ed8582860162000fdc565b9150509250929050565b6000602082840312156200110a57600080fd5b60006200111a8482850162000fc5565b91505092915050565b6200112e81620014ef565b82525050565b6200113f8162001539565b82525050565b60006200115460268362001446565b9150620011618262001590565b604082019050919050565b60006200117b60238362001446565b91506200118882620015df565b604082019050919050565b6000620011a260298362001446565b9150620011af826200162e565b604082019050919050565b6000620011c960208362001446565b9150620011d6826200167d565b602082019050919050565b6000620011f060318362001446565b9150620011fd82620016a6565b604082019050919050565b60006200121760028362001446565b91506200122482620016f5565b602082019050919050565b60006200123e600c8362001446565b91506200124b826200171e565b602082019050919050565b62001261816200152f565b82525050565b60006020820190506200127e600083018462001123565b92915050565b60006060820190506200129b600083018662001123565b620012aa602083018562001123565b620012b9604083018462001256565b949350505050565b6000604082019050620012d8600083018562001123565b620012e7602083018462001256565b9392505050565b600060608201905062001305600083018662001123565b62001314602083018562001256565b62001323604083018462001123565b949350505050565b600060208201905062001342600083018462001134565b92915050565b60006020820190508181036000830152620013638162001145565b9050919050565b6000602082019050818103600083015262001385816200116c565b9050919050565b60006020820190508181036000830152620013a78162001193565b9050919050565b60006020820190508181036000830152620013c981620011ba565b9050919050565b60006020820190508181036000830152620013eb81620011e1565b9050919050565b600060408201905081810360008301526200140d816200122f565b90508181036020830152620014228162001208565b9050919050565b600060208201905062001440600083018462001256565b92915050565b600082825260208201905092915050565b600062001464826200152f565b915062001471836200152f565b9250827fffffffffffffffffffffffffffffffffffffffffffffffffffffffffffffffff03821115620014a957620014a862001561565b5b828201905092915050565b6000620014c1826200152f565b9150620014ce836200152f565b925082821015620014e457620014e362001561565b5b828203905092915050565b6000620014fc826200150f565b9050919050565b60008115159050919050565b600073ffffffffffffffffffffffffffffffffffffffff82169050919050565b6000819050919050565b600062001546826200154d565b9050919050565b60006200155a826200150f565b9050919050565b7f4e487b7100000000000000000000000000000000000000000000000000000000600052601160045260246000fd5b7f4f776e61626c653a206e6577206f776e657220697320746865207a65726f206160008201527f6464726573730000000000000000000000000000000000000000000000000000602082015250565b7f4174206c65617374203120415054206e6565647320746f2062652072656c656160008201527f7365640000000000000000000000000000000000000000000000000000000000602082015250565b7f4174206c656173742031206e6174697665546f6b656e206e6565647320746f2060008201527f6265206c6f636b65640000000000000000000000000000000000000000000000602082015250565b7f4f776e61626c653a2063616c6c6572206973206e6f7420746865206f776e6572600082015250565b7f54686520627269646765206861736e2774206d696e746564207468697320777260008201527f6170706564206e6174697665546f6b656e000000000000000000000000000000602082015250565b7f7754000000000000000000000000000000000000000000000000000000000000600082015250565b7f77726170706564546f6b656e0000000000000000000000000000000000000000600082015250565b6200175281620014ef565b81146200175e57600080fd5b50565b6200176c8162001503565b81146200177857600080fd5b50565b62001786816200152f565b81146200179257600080fd5b5056fe60806040523480156200001157600080fd5b5060405162003972380380620039728339818101604052810190620000379190620004ee565b8181816005908051906020019062000051929190620003cc565b5080600690805190602001906200006a929190620003cc565b5050506000600760006101000a81548160ff021916908315150217905550620000ac6000801b620000a06200013660201b60201c565b6200013e60201b60201c565b620000ed7f9f2df0fed2c77648de5860a4cc508cd0818c85b8b8a1ab4ceeef8d981c8956a6620000e16200013660201b60201c565b6200013e60201b60201c565b6200012e7f65d7a28e3265b37a6474929f336521b332c1681b933f6cb9f3376673440d862a620001226200013660201b60201c565b6200013e60201b60201c565b5050620006d1565b600033905090565b6200015082826200015460201b60201c565b5050565b6200016b82826200019c60201b62000dfc1760201c565b6200019781600160008581526020019081526020016000206200028d60201b62000edc1790919060201c565b505050565b620001ae8282620002c560201b60201c565b6200028957600160008084815260200190815260200160002060000160008373ffffffffffffffffffffffffffffffffffffffff1673ffffffffffffffffffffffffffffffffffffffff16815260200190815260200160002060006101000a81548160ff0219169083151502179055506200022e6200013660201b60201c565b73ffffffffffffffffffffffffffffffffffffffff168173ffffffffffffffffffffffffffffffffffffffff16837f2f8788117e7eff1d82e926ec794901d17c78024a50270940304540a733656f0d60405160405180910390a45b5050565b6000620002bd836000018373ffffffffffffffffffffffffffffffffffffffff1660001b6200032f60201b60201c565b905092915050565b600080600084815260200190815260200160002060000160008373ffffffffffffffffffffffffffffffffffffffff1673ffffffffffffffffffffffffffffffffffffffff16815260200190815260200160002060009054906101000a900460ff16905092915050565b6000620003438383620003a960201b60201c565b6200039e578260000182908060018154018082558091505060019003906000526020600020016000909190919091505582600001805490508360010160008481526020019081526020016000208190555060019050620003a3565b600090505b92915050565b600080836001016000848152602001908152602001600020541415905092915050565b828054620003da90620005f6565b90600052602060002090601f016020900481019282620003fe57600085556200044a565b82601f106200041957805160ff19168380011785556200044a565b828001600101855582156200044a579182015b82811115620004495782518255916020019190600101906200042c565b5b5090506200045991906200045d565b5090565b5b80821115620004785760008160009055506001016200045e565b5090565b6000620004936200048d846200058a565b62000561565b905082815260208101848484011115620004ac57600080fd5b620004b9848285620005c0565b509392505050565b600082601f830112620004d357600080fd5b8151620004e58482602086016200047c565b91505092915050565b600080604083850312156200050257600080fd5b600083015167ffffffffffffffff8111156200051d57600080fd5b6200052b85828601620004c1565b925050602083015167ffffffffffffffff8111156200054957600080fd5b6200055785828601620004c1565b9150509250929050565b60006200056d62000580565b90506200057b82826200062c565b919050565b6000604051905090565b600067ffffffffffffffff821115620005a857620005a762000691565b5b620005b382620006c0565b9050602081019050919050565b60005b83811015620005e0578082015181840152602081019050620005c3565b83811115620005f0576000848401525b50505050565b600060028204905060018216806200060f57607f821691505b6020821081141562000626576200062562000662565b5b50919050565b6200063782620006c0565b810181811067ffffffffffffffff8211171562000659576200065862000691565b5b80604052505050565b7f4e487b7100000000000000000000000000000000000000000000000000000000600052602260045260246000fd5b7f4e487b7100000000000000000000000000000000000000000000000000000000600052604160045260246000fd5b6000601f19601f8301169050919050565b61329180620006e16000396000f3fe608060405234801561001057600080fd5b50600436106101c45760003560e01c806370a08231116100f9578063a457c2d711610097578063d539139311610071578063d53913931461052d578063d547741f1461054b578063dd62ed3e14610567578063e63ab1e914610597576101c4565b8063a457c2d71461049d578063a9059cbb146104cd578063ca15c873146104fd576101c4565b80639010d07c116100d35780639010d07c1461040157806391d148541461043157806395d89b4114610461578063a217fddf1461047f576101c4565b806370a08231146103ab57806379cc6790146103db5780638456cb59146103f7576101c4565b8063313ce567116101665780633f4ba83a116101405780633f4ba83a1461034b57806340c10f191461035557806342966c68146103715780635c975abb1461038d576101c4565b8063313ce567146102e157806336568abe146102ff578063395093511461031b576101c4565b806318160ddd116101a257806318160ddd1461024757806323b872dd14610265578063248a9ca3146102955780632f2ff15d146102c5576101c4565b806301ffc9a7146101c957806306fdde03146101f9578063095ea7b314610217575b600080fd5b6101e360048036038101906101de9190612363565b6105b5565b6040516101f0919061277b565b60405180910390f35b61020161062f565b60405161020e91906127b1565b60405180910390f35b610231600480360381019061022c9190612286565b6106c1565b60405161023e919061277b565b60405180910390f35b61024f6106e4565b60405161025c9190612a13565b60405180910390f35b61027f600480360381019061027a9190612237565b6106ee565b60405161028c919061277b565b60405180910390f35b6102af60048036038101906102aa91906122c2565b61071d565b6040516102bc9190612796565b60405180910390f35b6102df60048036038101906102da91906122eb565b61073c565b005b6102e9610765565b6040516102f69190612a2e565b60405180910390f35b610319600480360381019061031491906122eb565b61076e565b005b61033560048036038101906103309190612286565b6107f1565b604051610342919061277b565b60405180910390f35b61035361089b565b005b61036f600480360381019061036a9190612286565b610915565b005b61038b6004803603810190610386919061238c565b610993565b005b6103956109a7565b6040516103a2919061277b565b60405180910390f35b6103c560048036038101906103c091906121d2565b6109be565b6040516103d29190612a13565b60405180910390f35b6103f560048036038101906103f09190612286565b610a07565b005b6103ff610a27565b005b61041b60048036038101906104169190612327565b610aa1565b6040516104289190612760565b60405180910390f35b61044b600480360381019061044691906122eb565b610ad0565b604051610458919061277b565b60405180910390f35b610469610b3a565b60405161047691906127b1565b60405180910390f35b610487610bcc565b6040516104949190612796565b60405180910390f35b6104b760048036038101906104b29190612286565b610bd3565b6040516104c4919061277b565b60405180910390f35b6104e760048036038101906104e29190612286565b610cbd565b6040516104f4919061277b565b60405180910390f35b610517600480360381019061051291906122c2565b610ce0565b6040516105249190612a13565b60405180910390f35b610535610d04565b6040516105429190612796565b60405180910390f35b610565600480360381019061056091906122eb565b610d28565b005b610581600480360381019061057c91906121fb565b610d51565b60405161058e9190612a13565b60405180910390f35b61059f610dd8565b6040516105ac9190612796565b60405180910390f35b60007f5a05180f000000000000000000000000000000000000000000000000000000007bffffffffffffffffffffffffffffffffffffffffffffffffffffffff1916827bffffffffffffffffffffffffffffffffffffffffffffffffffffffff19161480610628575061062782610f0c565b5b9050919050565b60606005805461063e90612c3c565b80601f016020809104026020016040519081016040528092919081815260200182805461066a90612c3c565b80156106b75780601f1061068c576101008083540402835291602001916106b7565b820191906000526020600020905b81548152906001019060200180831161069a57829003601f168201915b5050505050905090565b6000806106cc610f86565b90506106d9818585610f8e565b600191505092915050565b6000600454905090565b6000806106f9610f86565b9050610706858285611159565b6107118585856111e5565b60019150509392505050565b6000806000838152602001908152602001600020600101549050919050565b6107458261071d565b61075681610751610f86565b611469565b6107608383611506565b505050565b60006012905090565b610776610f86565b73ffffffffffffffffffffffffffffffffffffffff168173ffffffffffffffffffffffffffffffffffffffff16146107e3576040517f08c379a00000000000000000000000000000000000000000000000000000000081526004016107da906129b3565b60405180910390fd5b6107ed828261153a565b5050565b6000806107fc610f86565b9050610890818585600360008673ffffffffffffffffffffffffffffffffffffffff1673ffffffffffffffffffffffffffffffffffffffff16815260200190815260200160002060008973ffffffffffffffffffffffffffffffffffffffff1673ffffffffffffffffffffffffffffffffffffffff1681526020019081526020016000205461088b9190612a70565b610f8e565b600191505092915050565b6108cc7f65d7a28e3265b37a6474929f336521b332c1681b933f6cb9f3376673440d862a6108c7610f86565b610ad0565b61090b576040517f08c379a000000000000000000000000000000000000000000000000000000000815260040161090290612853565b60405180910390fd5b61091361156e565b565b6109467f9f2df0fed2c77648de5860a4cc508cd0818c85b8b8a1ab4ceeef8d981c8956a6610941610f86565b610ad0565b610985576040517f08c379a000000000000000000000000000000000000000000000000000000000815260040161097c906128f3565b60405180910390fd5b61098f8282611610565b5050565b6109a461099e610f86565b82611771565b50565b6000600760009054906101000a900460ff16905090565b6000600260008373ffffffffffffffffffffffffffffffffffffffff1673ffffffffffffffffffffffffffffffffffffffff168152602001908152602001600020549050919050565b610a1982610a13610f86565b83611159565b610a238282611771565b5050565b610a587f65d7a28e3265b37a6474929f336521b332c1681b933f6cb9f3376673440d862a610a53610f86565b610ad0565b610a97576040517f08c379a0000000000000000000000000000000000000000000000000000000008152600401610a8e90612973565b60405180910390fd5b610a9f61194a565b565b6000610ac882600160008681526020019081526020016000206119ed90919063ffffffff16565b905092915050565b600080600084815260200190815260200160002060000160008373ffffffffffffffffffffffffffffffffffffffff1673ffffffffffffffffffffffffffffffffffffffff16815260200190815260200160002060009054906101000a900460ff16905092915050565b606060068054610b4990612c3c565b80601f0160208091040260200160405190810160405280929190818152602001828054610b7590612c3c565b8015610bc25780601f10610b9757610100808354040283529160200191610bc2565b820191906000526020600020905b815481529060010190602001808311610ba557829003601f168201915b5050505050905090565b6000801b81565b600080610bde610f86565b90506000600360008373ffffffffffffffffffffffffffffffffffffffff1673ffffffffffffffffffffffffffffffffffffffff16815260200190815260200160002060008673ffffffffffffffffffffffffffffffffffffffff1673ffffffffffffffffffffffffffffffffffffffff16815260200190815260200160002054905083811015610ca4576040517f08c379a0000000000000000000000000000000000000000000000000000000008152600401610c9b90612993565b60405180910390fd5b610cb18286868403610f8e565b60019250505092915050565b600080610cc8610f86565b9050610cd58185856111e5565b600191505092915050565b6000610cfd60016000848152602001908152602001600020611a07565b9050919050565b7f9f2df0fed2c77648de5860a4cc508cd0818c85b8b8a1ab4ceeef8d981c8956a681565b610d318261071d565b610d4281610d3d610f86565b611469565b610d4c838361153a565b505050565b6000600360008473ffffffffffffffffffffffffffffffffffffffff1673ffffffffffffffffffffffffffffffffffffffff16815260200190815260200160002060008373ffffffffffffffffffffffffffffffffffffffff1673ffffffffffffffffffffffffffffffffffffffff16815260200190815260200160002054905092915050565b7f65d7a28e3265b37a6474929f336521b332c1681b933f6cb9f3376673440d862a81565b610e068282610ad0565b610ed857600160008084815260200190815260200160002060000160008373ffffffffffffffffffffffffffffffffffffffff1673ffffffffffffffffffffffffffffffffffffffff16815260200190815260200160002060006101000a81548160ff021916908315150217905550610e7d610f86565b73ffffffffffffffffffffffffffffffffffffffff168173ffffffffffffffffffffffffffffffffffffffff16837f2f8788117e7eff1d82e926ec794901d17c78024a50270940304540a733656f0d60405160405180910390a45b5050565b6000610f04836000018373ffffffffffffffffffffffffffffffffffffffff1660001b611a1c565b905092915050565b60007f7965db0b000000000000000000000000000000000000000000000000000000007bffffffffffffffffffffffffffffffffffffffffffffffffffffffff1916827bffffffffffffffffffffffffffffffffffffffffffffffffffffffff19161480610f7f5750610f7e82611a8c565b5b9050919050565b600033905090565b600073ffffffffffffffffffffffffffffffffffffffff168373ffffffffffffffffffffffffffffffffffffffff161415610ffe576040517f08c379a0000000000000000000000000000000000000000000000000000000008152600401610ff590612953565b60405180910390fd5b600073ffffffffffffffffffffffffffffffffffffffff168273ffffffffffffffffffffffffffffffffffffffff16141561106e576040517f08c379a000000000000000000000000000000000000000000000000000000000815260040161106590612873565b60405180910390fd5b80600360008573ffffffffffffffffffffffffffffffffffffffff1673ffffffffffffffffffffffffffffffffffffffff16815260200190815260200160002060008473ffffffffffffffffffffffffffffffffffffffff1673ffffffffffffffffffffffffffffffffffffffff168152602001908152602001600020819055508173ffffffffffffffffffffffffffffffffffffffff168373ffffffffffffffffffffffffffffffffffffffff167f8c5be1e5ebec7d5bd14f71427d1e84f3dd0314c0f7b2291e5b200ac8c7c3b9258360405161114c9190612a13565b60405180910390a3505050565b60006111658484610d51565b90507fffffffffffffffffffffffffffffffffffffffffffffffffffffffffffffffff81146111df57818110156111d1576040517f08c379a00000000000000000000000000000000000000000000000000000000081526004016111c890612893565b60405180910390fd5b6111de8484848403610f8e565b5b50505050565b600073ffffffffffffffffffffffffffffffffffffffff168373ffffffffffffffffffffffffffffffffffffffff161415611255576040517f08c379a000000000000000000000000000000000000000000000000000000000815260040161124c90612933565b60405180910390fd5b600073ffffffffffffffffffffffffffffffffffffffff168273ffffffffffffffffffffffffffffffffffffffff1614156112c5576040517f08c379a00000000000000000000000000000000000000000000000000000000081526004016112bc906127f3565b60405180910390fd5b6112d0838383611af6565b6000600260008573ffffffffffffffffffffffffffffffffffffffff1673ffffffffffffffffffffffffffffffffffffffff16815260200190815260200160002054905081811015611357576040517f08c379a000000000000000000000000000000000000000000000000000000000815260040161134e906128b3565b60405180910390fd5b818103600260008673ffffffffffffffffffffffffffffffffffffffff1673ffffffffffffffffffffffffffffffffffffffff1681526020019081526020016000208190555081600260008573ffffffffffffffffffffffffffffffffffffffff1673ffffffffffffffffffffffffffffffffffffffff16815260200190815260200160002060008282546113ec9190612a70565b925050819055508273ffffffffffffffffffffffffffffffffffffffff168473ffffffffffffffffffffffffffffffffffffffff167fddf252ad1be2c89b69c2b068fc378daa952ba7f163c4a11628f55a4df523b3ef846040516114509190612a13565b60405180910390a3611463848484611b06565b50505050565b6114738282610ad0565b611502576114988173ffffffffffffffffffffffffffffffffffffffff166014611b0b565b6114a68360001c6020611b0b565b6040516020016114b7929190612726565b6040516020818303038152906040526040517f08c379a00000000000000000000000000000000000000000000000000000000081526004016114f991906127b1565b60405180910390fd5b5050565b6115108282610dfc565b6115358160016000858152602001908152602001600020610edc90919063ffffffff16565b505050565b6115448282611e05565b6115698160016000858152602001908152602001600020611ee690919063ffffffff16565b505050565b6115766109a7565b6115b5576040517f08c379a00000000000000000000000000000000000000000000000000000000081526004016115ac90612813565b60405180910390fd5b6000600760006101000a81548160ff0219169083151502179055507f5db9ee0a495bf2e6ff9c91a7834c1ba4fdd244a5e8aa4e537bd38aeae4b073aa6115f9610f86565b6040516116069190612760565b60405180910390a1565b600073ffffffffffffffffffffffffffffffffffffffff168273ffffffffffffffffffffffffffffffffffffffff161415611680576040517f08c379a0000000000000000000000000000000000000000000000000000000008152600401611677906129d3565b60405180910390fd5b61168c60008383611af6565b806004600082825461169e9190612a70565b9250508190555080600260008473ffffffffffffffffffffffffffffffffffffffff1673ffffffffffffffffffffffffffffffffffffffff16815260200190815260200160002060008282546116f49190612a70565b925050819055508173ffffffffffffffffffffffffffffffffffffffff16600073ffffffffffffffffffffffffffffffffffffffff167fddf252ad1be2c89b69c2b068fc378daa952ba7f163c4a11628f55a4df523b3ef836040516117599190612a13565b60405180910390a361176d60008383611b06565b5050565b600073ffffffffffffffffffffffffffffffffffffffff168273ffffffffffffffffffffffffffffffffffffffff1614156117e1576040517f08c379a00000000000000000000000000000000000000000000000000000000081526004016117d890612913565b60405180910390fd5b6117ed82600083611af6565b6000600260008473ffffffffffffffffffffffffffffffffffffffff1673ffffffffffffffffffffffffffffffffffffffff16815260200190815260200160002054905081811015611874576040517f08c379a000000000000000000000000000000000000000000000000000000000815260040161186b90612833565b60405180910390fd5b818103600260008573ffffffffffffffffffffffffffffffffffffffff1673ffffffffffffffffffffffffffffffffffffffff1681526020019081526020016000208190555081600460008282546118cc9190612b20565b92505081905550600073ffffffffffffffffffffffffffffffffffffffff168373ffffffffffffffffffffffffffffffffffffffff167fddf252ad1be2c89b69c2b068fc378daa952ba7f163c4a11628f55a4df523b3ef846040516119319190612a13565b60405180910390a361194583600084611b06565b505050565b6119526109a7565b15611992576040517f08c379a0000000000000000000000000000000000000000000000000000000008152600401611989906128d3565b60405180910390fd5b6001600760006101000a81548160ff0219169083151502179055507f62e78cea01bee320cd4e420270b5ea74000d11b0c9f74754ebdbfc544b05a2586119d6610f86565b6040516119e39190612760565b60405180910390a1565b60006119fc8360000183611f16565b60001c905092915050565b6000611a1582600001611f67565b9050919050565b6000611a288383611f78565b611a81578260000182908060018154018082558091505060019003906000526020600020016000909190919091505582600001805490508360010160008481526020019081526020016000208190555060019050611a86565b600090505b92915050565b60007f01ffc9a7000000000000000000000000000000000000000000000000000000007bffffffffffffffffffffffffffffffffffffffffffffffffffffffff1916827bffffffffffffffffffffffffffffffffffffffffffffffffffffffff1916149050919050565b611b01838383611f9b565b505050565b505050565b606060006002836002611b1e9190612ac6565b611b289190612a70565b67ffffffffffffffff811115611b67577f4e487b7100000000000000000000000000000000000000000000000000000000600052604160045260246000fd5b6040519080825280601f01601f191660200182016040528015611b995781602001600182028036833780820191505090505b5090507f300000000000000000000000000000000000000000000000000000000000000081600081518110611bf7577f4e487b7100000000000000000000000000000000000000000000000000000000600052603260045260246000fd5b60200101907effffffffffffffffffffffffffffffffffffffffffffffffffffffffffffff1916908160001a9053507f780000000000000000000000000000000000000000000000000000000000000081600181518110611c81577f4e487b7100000000000000000000000000000000000000000000000000000000600052603260045260246000fd5b60200101907effffffffffffffffffffffffffffffffffffffffffffffffffffffffffffff1916908160001a90535060006001846002611cc19190612ac6565b611ccb9190612a70565b90505b6001811115611db7577f3031323334353637383961626364656600000000000000000000000000000000600f861660108110611d33577f4e487b7100000000000000000000000000000000000000000000000000000000600052603260045260246000fd5b1a60f81b828281518110611d70577f4e487b7100000000000000000000000000000000000000000000000000000000600052603260045260246000fd5b60200101907effffffffffffffffffffffffffffffffffffffffffffffffffffffffffffff1916908160001a905350600485901c945080611db090612c12565b9050611cce565b5060008414611dfb576040517f08c379a0000000000000000000000000000000000000000000000000000000008152600401611df2906127d3565b60405180910390fd5b8091505092915050565b611e0f8282610ad0565b15611ee257600080600084815260200190815260200160002060000160008373ffffffffffffffffffffffffffffffffffffffff1673ffffffffffffffffffffffffffffffffffffffff16815260200190815260200160002060006101000a81548160ff021916908315150217905550611e87610f86565b73ffffffffffffffffffffffffffffffffffffffff168173ffffffffffffffffffffffffffffffffffffffff16837ff6391f5c32d9c69d2a47ea670b442974b53935d1edc7fd64eb21e047a839171b60405160405180910390a45b5050565b6000611f0e836000018373ffffffffffffffffffffffffffffffffffffffff1660001b611ff3565b905092915050565b6000826000018281548110611f54577f4e487b7100000000000000000000000000000000000000000000000000000000600052603260045260246000fd5b9060005260206000200154905092915050565b600081600001805490509050919050565b600080836001016000848152602001908152602001600020541415905092915050565b611fa6838383612179565b611fae6109a7565b15611fee576040517f08c379a0000000000000000000000000000000000000000000000000000000008152600401611fe5906129f3565b60405180910390fd5b505050565b6000808360010160008481526020019081526020016000205490506000811461216d5760006001826120259190612b20565b905060006001866000018054905061203d9190612b20565b90508181146120f8576000866000018281548110612084577f4e487b7100000000000000000000000000000000000000000000000000000000600052603260045260246000fd5b90600052602060002001549050808760000184815481106120ce577f4e487b7100000000000000000000000000000000000000000000000000000000600052603260045260246000fd5b90600052602060002001819055508387600101600083815260200190815260200160002081905550505b85600001805480612132577f4e487b7100000000000000000000000000000000000000000000000000000000600052603160045260246000fd5b600190038181906000526020600020016000905590558560010160008681526020019081526020016000206000905560019350505050612173565b60009150505b92915050565b505050565b60008135905061218d816131ff565b92915050565b6000813590506121a281613216565b92915050565b6000813590506121b78161322d565b92915050565b6000813590506121cc81613244565b92915050565b6000602082840312156121e457600080fd5b60006121f28482850161217e565b91505092915050565b6000806040838503121561220e57600080fd5b600061221c8582860161217e565b925050602061222d8582860161217e565b9150509250929050565b60008060006060848603121561224c57600080fd5b600061225a8682870161217e565b935050602061226b8682870161217e565b925050604061227c868287016121bd565b9150509250925092565b6000806040838503121561229957600080fd5b60006122a78582860161217e565b92505060206122b8858286016121bd565b9150509250929050565b6000602082840312156122d457600080fd5b60006122e284828501612193565b91505092915050565b600080604083850312156122fe57600080fd5b600061230c85828601612193565b925050602061231d8582860161217e565b9150509250929050565b6000806040838503121561233a57600080fd5b600061234885828601612193565b9250506020612359858286016121bd565b9150509250929050565b60006020828403121561237557600080fd5b6000612383848285016121a8565b91505092915050565b60006020828403121561239e57600080fd5b60006123ac848285016121bd565b91505092915050565b6123be81612b54565b82525050565b6123cd81612b66565b82525050565b6123dc81612b72565b82525050565b60006123ed82612a49565b6123f78185612a54565b9350612407818560208601612bdf565b61241081612ccc565b840191505092915050565b600061242682612a49565b6124308185612a65565b9350612440818560208601612bdf565b80840191505092915050565b6000612459602083612a54565b915061246482612cdd565b602082019050919050565b600061247c602383612a54565b915061248782612d06565b604082019050919050565b600061249f601483612a54565b91506124aa82612d55565b602082019050919050565b60006124c2602283612a54565b91506124cd82612d7e565b604082019050919050565b60006124e5603983612a54565b91506124f082612dcd565b604082019050919050565b6000612508602283612a54565b915061251382612e1c565b604082019050919050565b600061252b601d83612a54565b915061253682612e6b565b602082019050919050565b600061254e602683612a54565b915061255982612e94565b604082019050919050565b6000612571601083612a54565b915061257c82612ee3565b602082019050919050565b6000612594603683612a54565b915061259f82612f0c565b604082019050919050565b60006125b7602183612a54565b91506125c282612f5b565b604082019050919050565b60006125da602583612a54565b91506125e582612faa565b604082019050919050565b60006125fd602483612a54565b915061260882612ff9565b604082019050919050565b6000612620603783612a54565b915061262b82613048565b604082019050919050565b6000612643601783612a65565b915061264e82613097565b601782019050919050565b6000612666602583612a54565b9150612671826130c0565b604082019050919050565b6000612689601183612a65565b91506126948261310f565b601182019050919050565b60006126ac602f83612a54565b91506126b782613138565b604082019050919050565b60006126cf601f83612a54565b91506126da82613187565b602082019050919050565b60006126f2602a83612a54565b91506126fd826131b0565b604082019050919050565b61271181612bc8565b82525050565b61272081612bd2565b82525050565b600061273182612636565b915061273d828561241b565b91506127488261267c565b9150612754828461241b565b91508190509392505050565b600060208201905061277560008301846123b5565b92915050565b600060208201905061279060008301846123c4565b92915050565b60006020820190506127ab60008301846123d3565b92915050565b600060208201905081810360008301526127cb81846123e2565b905092915050565b600060208201905081810360008301526127ec8161244c565b9050919050565b6000602082019050818103600083015261280c8161246f565b9050919050565b6000602082019050818103600083015261282c81612492565b9050919050565b6000602082019050818103600083015261284c816124b5565b9050919050565b6000602082019050818103600083015261286c816124d8565b9050919050565b6000602082019050818103600083015261288c816124fb565b9050919050565b600060208201905081810360008301526128ac8161251e565b9050919050565b600060208201905081810360008301526128cc81612541565b9050919050565b600060208201905081810360008301526128ec81612564565b9050919050565b6000602082019050818103600083015261290c81612587565b9050919050565b6000602082019050818103600083015261292c816125aa565b9050919050565b6000602082019050818103600083015261294c816125cd565b9050919050565b6000602082019050818103600083015261296c816125f0565b9050919050565b6000602082019050818103600083015261298c81612613565b9050919050565b600060208201905081810360008301526129ac81612659565b9050919050565b600060208201905081810360008301526129cc8161269f565b9050919050565b600060208201905081810360008301526129ec816126c2565b9050919050565b60006020820190508181036000830152612a0c816126e5565b9050919050565b6000602082019050612a286000830184612708565b92915050565b6000602082019050612a436000830184612717565b92915050565b600081519050919050565b600082825260208201905092915050565b600081905092915050565b6000612a7b82612bc8565b9150612a8683612bc8565b9250827fffffffffffffffffffffffffffffffffffffffffffffffffffffffffffffffff03821115612abb57612aba612c6e565b5b828201905092915050565b6000612ad182612bc8565b9150612adc83612bc8565b9250817fffffffffffffffffffffffffffffffffffffffffffffffffffffffffffffffff0483118215151615612b1557612b14612c6e565b5b828202905092915050565b6000612b2b82612bc8565b9150612b3683612bc8565b925082821015612b4957612b48612c6e565b5b828203905092915050565b6000612b5f82612ba8565b9050919050565b60008115159050919050565b6000819050919050565b60007fffffffff0000000000000000000000000000000000000000000000000000000082169050919050565b600073ffffffffffffffffffffffffffffffffffffffff82169050919050565b6000819050919050565b600060ff82169050919050565b60005b83811015612bfd578082015181840152602081019050612be2565b83811115612c0c576000848401525b50505050565b6000612c1d82612bc8565b91506000821415612c3157612c30612c6e565b5b600182039050919050565b60006002820490506001821680612c5457607f821691505b60208210811415612c6857612c67612c9d565b5b50919050565b7f4e487b7100000000000000000000000000000000000000000000000000000000600052601160045260246000fd5b7f4e487b7100000000000000000000000000000000000000000000000000000000600052602260045260246000fd5b6000601f19601f8301169050919050565b7f537472696e67733a20686578206c656e67746820696e73756666696369656e74600082015250565b7f45524332303a207472616e7366657220746f20746865207a65726f206164647260008201527f6573730000000000000000000000000000000000000000000000000000000000602082015250565b7f5061757361626c653a206e6f7420706175736564000000000000000000000000600082015250565b7f45524332303a206275726e20616d6f756e7420657863656564732062616c616e60008201527f6365000000000000000000000000000000000000000000000000000000000000602082015250565b7f45524332305072657365744d696e7465725061757365723a206d75737420686160008201527f76652070617573657220726f6c6520746f20756e706175736500000000000000602082015250565b7f45524332303a20617070726f766520746f20746865207a65726f20616464726560008201527f7373000000000000000000000000000000000000000000000000000000000000602082015250565b7f45524332303a20696e73756666696369656e7420616c6c6f77616e6365000000600082015250565b7f45524332303a207472616e7366657220616d6f756e742065786365656473206260008201527f616c616e63650000000000000000000000000000000000000000000000000000602082015250565b7f5061757361626c653a2070617573656400000000000000000000000000000000600082015250565b7f45524332305072657365744d696e7465725061757365723a206d75737420686160008201527f7665206d696e74657220726f6c6520746f206d696e7400000000000000000000602082015250565b7f45524332303a206275726e2066726f6d20746865207a65726f2061646472657360008201527f7300000000000000000000000000000000000000000000000000000000000000602082015250565b7f45524332303a207472616e736665722066726f6d20746865207a65726f20616460008201527f6472657373000000000000000000000000000000000000000000000000000000602082015250565b7f45524332303a20617070726f76652066726f6d20746865207a65726f2061646460008201527f7265737300000000000000000000000000000000000000000000000000000000602082015250565b7f45524332305072657365744d696e7465725061757365723a206d75737420686160008201527f76652070617573657220726f6c6520746f207061757365000000000000000000602082015250565b7f416363657373436f6e74726f6c3a206163636f756e7420000000000000000000600082015250565b7f45524332303a2064656372656173656420616c6c6f77616e63652062656c6f7760008201527f207a65726f000000000000000000000000000000000000000000000000000000602082015250565b7f206973206d697373696e6720726f6c6520000000000000000000000000000000600082015250565b7f416363657373436f6e74726f6c3a2063616e206f6e6c792072656e6f756e636560008201527f20726f6c657320666f722073656c660000000000000000000000000000000000602082015250565b7f45524332303a206d696e7420746f20746865207a65726f206164647265737300600082015250565b7f45524332305061757361626c653a20746f6b656e207472616e7366657220776860008201527f696c652070617573656400000000000000000000000000000000000000000000602082015250565b61320881612b54565b811461321357600080fd5b50565b61321f81612b72565b811461322a57600080fd5b50565b61323681612b7c565b811461324157600080fd5b50565b61324d81612bc8565b811461325857600080fd5b5056fea26469706673582212205d2de38e9a4ae5a3722b1b63ad95844e6a056e6324e879d72c043f0a7fb2ef6764736f6c63430008040033a26469706673582212200161a343deaf7ea411735588d8b0793fd03c47187530f6af8914ff2d6362fc6564736f6c63430008040033",
  "linkReferences": {},
  "deployedLinkReferences": {}
}