{
  "_format": "hh-sol-artifact-1",
  "contractName": "USElection",
  "sourceName": "contracts/USElection.sol",
  "abi": [
    {
      "anonymous": false,
      "inputs": [
        {
          "indexed": false,
          "internalType": "uint256",
          "name": "winner",
          "type": "uint256"
        }
      ],
      "name": "LogElectionEnded",
      "type": "event"
    },
    {
      "anonymous": false,
      "inputs": [
        {
          "indexed": false,
          "internalType": "uint8",
          "name": "winner",
          "type": "uint8"
        },
        {
          "indexed": false,
          "internalType": "uint256",
          "name": "stateSeats",
          "type": "uint256"
        },
        {
          "indexed": false,
          "internalType": "string",
          "name": "state",
          "type": "string"
        }
      ],
      "name": "LogStateResult",
      "type": "event"
    },
    {
      "anonymous": false,
      "inputs": [
        {
          "indexed": true,
          "internalType": "address",
          "name": "previousOwner",
          "type": "address"
        },
        {
          "indexed": true,
          "internalType": "address",
          "name": "newOwner",
          "type": "address"
        }
      ],
      "name": "OwnershipTransferred",
      "type": "event"
    },
    {
      "inputs": [],
      "name": "BIDEN",
      "outputs": [
        {
          "internalType": "uint8",
          "name": "",
          "type": "uint8"
        }
      ],
      "stateMutability": "view",
      "type": "function"
    },
    {
      "inputs": [],
      "name": "TRUMP",
      "outputs": [
        {
          "internalType": "uint8",
          "name": "",
          "type": "uint8"
        }
      ],
      "stateMutability": "view",
      "type": "function"
    },
    {
      "inputs": [],
      "name": "currentLeader",
      "outputs": [
        {
          "internalType": "uint8",
          "name": "",
          "type": "uint8"
        }
      ],
      "stateMutability": "view",
      "type": "function"
    },
    {
      "inputs": [],
      "name": "electionEnded",
      "outputs": [
        {
          "internalType": "bool",
          "name": "",
          "type": "bool"
        }
      ],
      "stateMutability": "view",
      "type": "function"
    },
    {
      "inputs": [],
      "name": "endElection",
      "outputs": [],
      "stateMutability": "nonpayable",
      "type": "function"
    },
    {
      "inputs": [],
      "name": "owner",
      "outputs": [
        {
          "internalType": "address",
          "name": "",
          "type": "address"
        }
      ],
      "stateMutability": "view",
      "type": "function"
    },
    {
      "inputs": [],
      "name": "renounceOwnership",
      "outputs": [],
      "stateMutability": "nonpayable",
      "type": "function"
    },
    {
      "inputs": [
        {
          "internalType": "string",
          "name": "",
          "type": "string"
        }
      ],
      "name": "resultsSubmitted",
      "outputs": [
        {
          "internalType": "bool",
          "name": "",
          "type": "bool"
        }
      ],
      "stateMutability": "view",
      "type": "function"
    },
    {
      "inputs": [
        {
          "internalType": "uint256",
          "name": "",
          "type": "uint256"
        }
      ],
      "name": "seats",
      "outputs": [
        {
          "internalType": "uint256",
          "name": "",
          "type": "uint256"
        }
      ],
      "stateMutability": "view",
      "type": "function"
    },
    {
      "inputs": [
        {
          "components": [
            {
              "internalType": "string",
              "name": "name",
              "type": "string"
            },
            {
              "internalType": "uint256",
              "name": "votesBiden",
              "type": "uint256"
            },
            {
              "internalType": "uint256",
              "name": "votesTrump",
              "type": "uint256"
            },
            {
              "internalType": "uint256",
              "name": "stateSeats",
              "type": "uint256"
            }
          ],
          "internalType": "struct USElection.StateResult",
          "name": "result",
          "type": "tuple"
        }
      ],
      "name": "submitStateResult",
      "outputs": [],
      "stateMutability": "nonpayable",
      "type": "function"
    },
    {
      "inputs": [
        {
          "internalType": "address",
          "name": "newOwner",
          "type": "address"
        }
      ],
      "name": "transferOwnership",
      "outputs": [],
      "stateMutability": "nonpayable",
      "type": "function"
    }
  ],
  "bytecode": "0x608060405234801561001057600080fd5b5061002d61002261003260201b60201c565b61003a60201b60201c565b6100fe565b600033905090565b60008060009054906101000a900473ffffffffffffffffffffffffffffffffffffffff169050816000806101000a81548173ffffffffffffffffffffffffffffffffffffffff021916908373ffffffffffffffffffffffffffffffffffffffff1602179055508173ffffffffffffffffffffffffffffffffffffffff168173ffffffffffffffffffffffffffffffffffffffff167f8be0079c531659141344cd1fd0a4f28419497f9722a3daafe3b4186f6b6457e060405160405180910390a35050565b6111858061010d6000396000f3fe608060405234801561001057600080fd5b50600436106100a95760003560e01c806369b36bd41161007157806369b36bd414610152578063715018a6146101705780638da5cb5b1461017a578063ac4bd53a14610198578063c94ca9e3146101b6578063f2fde38b146101d4576100a9565b80632d78d8e5146100ae57806337ad98ec146100cc5780633b33c702146100fc5780634c4c27151461012c57806359f7846814610148575b600080fd5b6100b66101f0565b6040516100c39190610d29565b60405180910390f35b6100e660048036038101906100e191906109ca565b6101f5565b6040516100f39190610c18565b60405180910390f35b61011660048036038101906101119190610a4c565b61022b565b6040516101239190610cf3565b60405180910390f35b61014660048036038101906101419190610a0b565b610243565b005b610150610508565b005b61015a6105df565b6040516101679190610d29565b60405180910390f35b6101786105e4565b005b61018261066c565b60405161018f9190610bfd565b60405180910390f35b6101a0610695565b6040516101ad9190610d29565b60405180910390f35b6101be61071d565b6040516101cb9190610c18565b60405180910390f35b6101ee60048036038101906101e991906109a1565b610730565b005b600281565b6002818051602081018201805184825260208301602085012081835280955050505050506000915054906101000a900460ff1681565b60016020528060005260406000206000915090505481565b600060149054906101000a900460ff1615610293576040517f08c379a000000000000000000000000000000000000000000000000000000000815260040161028a90610c33565b60405180910390fd5b61029b610828565b73ffffffffffffffffffffffffffffffffffffffff166102b961066c565b73ffffffffffffffffffffffffffffffffffffffff161461030f576040517f08c379a000000000000000000000000000000000000000000000000000000000815260040161030690610c93565b60405180910390fd5b6000816060013511610356576040517f08c379a000000000000000000000000000000000000000000000000000000000815260040161034d90610cb3565b60405180910390fd5b8060400135816020013514156103a1576040517f08c379a000000000000000000000000000000000000000000000000000000000815260040161039890610c73565b60405180910390fd5b60028180600001906103b39190610d84565b6040516103c1929190610be4565b908152602001604051809103902060009054906101000a900460ff161561041d576040517f08c379a000000000000000000000000000000000000000000000000000000000815260040161041490610cd3565b60405180910390fd5b6000816020013582604001351115610438576002905061043d565b600190505b8160600135600160008360ff16815260200190815260200160002060008282546104679190610e4d565b92505081905550600160028380600001906104829190610d84565b604051610490929190610be4565b908152602001604051809103902060006101000a81548160ff0219169083151502179055507f7e3e4de208dc8f9914c6d2ba6d4e6c2fac839933f6fcfe08d50fcc8b15ae1de88183606001358480600001906104ec9190610d84565b6040516104fc9493929190610d44565b60405180910390a15050565b610510610828565b73ffffffffffffffffffffffffffffffffffffffff1661052e61066c565b73ffffffffffffffffffffffffffffffffffffffff1614610584576040517f08c379a000000000000000000000000000000000000000000000000000000000815260040161057b90610c93565b60405180910390fd5b6001600060146101000a81548160ff0219169083151502179055507faacb23683ec1a0e9b52f9a6264edf58ad322ac62079d65ea7363a2d400f439f46105c8610695565b6040516105d59190610d0e565b60405180910390a1565b600181565b6105ec610828565b73ffffffffffffffffffffffffffffffffffffffff1661060a61066c565b73ffffffffffffffffffffffffffffffffffffffff1614610660576040517f08c379a000000000000000000000000000000000000000000000000000000000815260040161065790610c93565b60405180910390fd5b61066a6000610830565b565b60008060009054906101000a900473ffffffffffffffffffffffffffffffffffffffff16905090565b600060016000600260ff1681526020019081526020016000205460016000600160ff1681526020019081526020016000205411156106d6576001905061071a565b60016000600160ff1681526020019081526020016000205460016000600260ff168152602001908152602001600020541115610715576002905061071a565b600090505b90565b600060149054906101000a900460ff1681565b610738610828565b73ffffffffffffffffffffffffffffffffffffffff1661075661066c565b73ffffffffffffffffffffffffffffffffffffffff16146107ac576040517f08c379a00000000000000000000000000000000000000000000000000000000081526004016107a390610c93565b60405180910390fd5b600073ffffffffffffffffffffffffffffffffffffffff168173ffffffffffffffffffffffffffffffffffffffff16141561081c576040517f08c379a000000000000000000000000000000000000000000000000000000000815260040161081390610c53565b60405180910390fd5b61082581610830565b50565b600033905090565b60008060009054906101000a900473ffffffffffffffffffffffffffffffffffffffff169050816000806101000a81548173ffffffffffffffffffffffffffffffffffffffff021916908373ffffffffffffffffffffffffffffffffffffffff1602179055508173ffffffffffffffffffffffffffffffffffffffff168173ffffffffffffffffffffffffffffffffffffffff167f8be0079c531659141344cd1fd0a4f28419497f9722a3daafe3b4186f6b6457e060405160405180910390a35050565b600061090761090284610e00565b610ddb565b90508281526020810184848401111561091f57600080fd5b61092a848285610f0a565b509392505050565b60008135905061094181611121565b92915050565b600082601f83011261095857600080fd5b81356109688482602086016108f4565b91505092915050565b60006080828403121561098357600080fd5b81905092915050565b60008135905061099b81611138565b92915050565b6000602082840312156109b357600080fd5b60006109c184828501610932565b91505092915050565b6000602082840312156109dc57600080fd5b600082013567ffffffffffffffff8111156109f657600080fd5b610a0284828501610947565b91505092915050565b600060208284031215610a1d57600080fd5b600082013567ffffffffffffffff811115610a3757600080fd5b610a4384828501610971565b91505092915050565b600060208284031215610a5e57600080fd5b6000610a6c8482850161098c565b91505092915050565b610a7e81610ea3565b82525050565b610a8d81610eb5565b82525050565b6000610a9f8385610e31565b9350610aac838584610f0a565b610ab583610fa8565b840190509392505050565b6000610acc8385610e42565b9350610ad9838584610f0a565b82840190509392505050565b6000610af2601a83610e31565b9150610afd82610fb9565b602082019050919050565b6000610b15602683610e31565b9150610b2082610fe2565b604082019050919050565b6000610b38601583610e31565b9150610b4382611031565b602082019050919050565b6000610b5b602083610e31565b9150610b668261105a565b602082019050919050565b6000610b7e602283610e31565b9150610b8982611083565b604082019050919050565b6000610ba1603583610e31565b9150610bac826110d2565b604082019050919050565b610bc081610ee1565b82525050565b610bcf81610ef8565b82525050565b610bde81610eeb565b82525050565b6000610bf1828486610ac0565b91508190509392505050565b6000602082019050610c126000830184610a75565b92915050565b6000602082019050610c2d6000830184610a84565b92915050565b60006020820190508181036000830152610c4c81610ae5565b9050919050565b60006020820190508181036000830152610c6c81610b08565b9050919050565b60006020820190508181036000830152610c8c81610b2b565b9050919050565b60006020820190508181036000830152610cac81610b4e565b9050919050565b60006020820190508181036000830152610ccc81610b71565b9050919050565b60006020820190508181036000830152610cec81610b94565b9050919050565b6000602082019050610d086000830184610bb7565b92915050565b6000602082019050610d236000830184610bc6565b92915050565b6000602082019050610d3e6000830184610bd5565b92915050565b6000606082019050610d596000830187610bd5565b610d666020830186610bb7565b8181036040830152610d79818486610a93565b905095945050505050565b60008083356001602003843603038112610d9d57600080fd5b80840192508235915067ffffffffffffffff821115610dbb57600080fd5b602083019250600182023603831315610dd357600080fd5b509250929050565b6000610de5610df6565b9050610df18282610f19565b919050565b6000604051905090565b600067ffffffffffffffff821115610e1b57610e1a610f79565b5b610e2482610fa8565b9050602081019050919050565b600082825260208201905092915050565b600081905092915050565b6000610e5882610ee1565b9150610e6383610ee1565b9250827fffffffffffffffffffffffffffffffffffffffffffffffffffffffffffffffff03821115610e9857610e97610f4a565b5b828201905092915050565b6000610eae82610ec1565b9050919050565b60008115159050919050565b600073ffffffffffffffffffffffffffffffffffffffff82169050919050565b6000819050919050565b600060ff82169050919050565b6000610f0382610eeb565b9050919050565b82818337600083830152505050565b610f2282610fa8565b810181811067ffffffffffffffff82111715610f4157610f40610f79565b5b80604052505050565b7f4e487b7100000000000000000000000000000000000000000000000000000000600052601160045260246000fd5b7f4e487b7100000000000000000000000000000000000000000000000000000000600052604160045260246000fd5b6000601f19601f8301169050919050565b7f456c656374696f6e2068617320656e64656420616c7265616479000000000000600082015250565b7f4f776e61626c653a206e6577206f776e657220697320746865207a65726f206160008201527f6464726573730000000000000000000000000000000000000000000000000000602082015250565b7f54686572652063616e6e6f742062652061207469650000000000000000000000600082015250565b7f4f776e61626c653a2063616c6c6572206973206e6f7420746865206f776e6572600082015250565b7f537461746573206d7573742068617665206174206c65617374206f6e6520736560008201527f6174000000000000000000000000000000000000000000000000000000000000602082015250565b7f54686520726573756c7420666f7220746869732073746174652068617320616c60008201527f7265616479206265656e207375626d6974746564210000000000000000000000602082015250565b61112a81610ea3565b811461113557600080fd5b50565b61114181610ee1565b811461114c57600080fd5b5056fea2646970667358221220aabbd6fa1f849a5ccfd41f86d505bf4604404793958a8bba638c8f3f7ca3c03f64736f6c63430008040033",
  "linkReferences": {},
  "deployedLinkReferences": {}
}